{
  "abi": [
    {
      "inputs": [],
      "name": "depth",
      "outputs": [
        {
          "internalType": "uint32",
          "name": "",
          "type": "uint32"
        }
      ],
      "stateMutability": "view",
      "type": "function"
    },
    {
      "inputs": [
        {
          "internalType": "address[]",
          "name": "addresses",
          "type": "address[]"
        },
        {
          "internalType": "enum RecursiveCallInner.Action[]",
          "name": "actions",
          "type": "uint8[]"
        },
        {
          "internalType": "uint32",
          "name": "max_depth",
          "type": "uint32"
        }
      ],
      "name": "recurse",
      "outputs": [
        {
          "internalType": "bool",
          "name": "",
          "type": "bool"
        }
      ],
      "stateMutability": "payable",
      "type": "function"
    },
    {
      "inputs": [],
      "name": "sender",
      "outputs": [
        {
          "internalType": "address",
          "name": "",
          "type": "address"
        }
      ],
      "stateMutability": "view",
      "type": "function"
    },
    {
      "inputs": [],
      "name": "value",
      "outputs": [
        {
          "internalType": "uint256",
          "name": "",
          "type": "uint256"
        }
      ],
      "stateMutability": "view",
      "type": "function"
    }
  ],
  "bytecode": {
    "object": "0x608060405234801561001057600080fd5b506109fc806100206000396000f3fe60806040526004361061003f5760003560e01c80633fa4f24514610044578063631c56ef1461006f57806367e404ce1461009a578063cc4be4fd146100c5575b600080fd5b34801561005057600080fd5b506100596100f5565b604051610066919061074c565b60405180910390f35b34801561007b57600080fd5b506100846100fb565b6040516100919190610767565b60405180910390f35b3480156100a657600080fd5b506100af61010f565b6040516100bc919061069f565b60405180910390f35b6100df60048036038101906100da9190610458565b610135565b6040516100ec9190610711565b60405180910390f35b60015481565b60008054906101000a900463ffffffff1681565b600060049054906101000a900473ffffffffffffffffffffffffffffffffffffffff1681565b6000808263ffffffff1614156101b75760008060006101000a81548163ffffffff021916908363ffffffff16021790555033600060046101000a81548173ffffffffffffffffffffffffffffffffffffffff021916908373ffffffffffffffffffffffffffffffffffffffff1602179055503460018190555060019050610353565b600086869050116101fd576040517f08c379a00000000000000000000000000000000000000000000000000000000081526004016101f49061072c565b60405180910390fd5b600086866000818110610239577f4e487b7100000000000000000000000000000000000000000000000000000000600052603260045260246000fd5b905060200201602081019061024e919061042f565b73ffffffffffffffffffffffffffffffffffffffff1687878787876001604051602401610280969594939291906106ba565b6040516020818303038152906040527f4885ccd9000000000000000000000000000000000000000000000000000000007bffffffffffffffffffffffffffffffffffffffffffffffffffffffff19166020820180517bffffffffffffffffffffffffffffffffffffffffffffffffffffffff838183161783525050505060405161030a9190610688565b600060405180830381855af49150503d8060008114610345576040519150601f19603f3d011682016040523d82523d6000602084013e61034a565b606091505b50509050809150505b95945050505050565b60008135905061036b81610988565b92915050565b60008083601f84011261038357600080fd5b8235905067ffffffffffffffff81111561039c57600080fd5b6020830191508360208202830111156103b457600080fd5b9250929050565b60008083601f8401126103cd57600080fd5b8235905067ffffffffffffffff8111156103e657600080fd5b6020830191508360208202830111156103fe57600080fd5b9250929050565b6000813590506104148161099f565b92915050565b600081359050610429816109af565b92915050565b60006020828403121561044157600080fd5b600061044f8482850161035c565b91505092915050565b60008060008060006060868803121561047057600080fd5b600086013567ffffffffffffffff81111561048a57600080fd5b61049688828901610371565b9550955050602086013567ffffffffffffffff8111156104b557600080fd5b6104c1888289016103bb565b935093505060406104d48882890161041a565b9150509295509295909350565b60006104ed8383610511565b60208301905092915050565b60006105058383610629565b60208301905092915050565b61051a81610827565b82525050565b61052981610827565b82525050565b600061053b83856107bb565b935061054682610782565b8060005b8581101561057f5761055c82846107f9565b61056688826104e1565b9750610571836107a1565b92505060018101905061054a565b5085925050509392505050565b600061059883856107cc565b93506105a38261078c565b8060005b858110156105dc576105b98284610810565b6105c388826104f9565b97506105ce836107ae565b9250506001810190506105a7565b5085925050509392505050565b6105f281610839565b82525050565b600061060382610796565b61060d81856107dd565b935061061d8185602086016108c3565b80840191505092915050565b6106328161089f565b82525050565b610641816108b1565b82525050565b6000610654602a836107e8565b915061065f82610925565b604082019050919050565b61067381610878565b82525050565b61068281610882565b82525050565b600061069482846105f8565b915081905092915050565b60006020820190506106b46000830184610520565b92915050565b600060808201905081810360008301526106d581888a61052f565b905081810360208301526106ea81868861058c565b90506106f96040830185610679565b6107066060830184610638565b979650505050505050565b600060208201905061072660008301846105e9565b92915050565b6000602082019050818103600083015261074581610647565b9050919050565b6000602082019050610761600083018461066a565b92915050565b600060208201905061077c6000830184610679565b92915050565b6000819050919050565b6000819050919050565b600081519050919050565b6000602082019050919050565b6000602082019050919050565b600082825260208201905092915050565b600082825260208201905092915050565b600081905092915050565b600082825260208201905092915050565b6000610808602084018461035c565b905092915050565b600061081f6020840184610405565b905092915050565b600061083282610858565b9050919050565b60008115159050919050565b600081905061085382610974565b919050565b600073ffffffffffffffffffffffffffffffffffffffff82169050919050565b6000819050919050565b600063ffffffff82169050919050565b600060ff82169050919050565b60006108aa82610845565b9050919050565b60006108bc82610892565b9050919050565b60005b838110156108e15780820151818401526020810190506108c6565b838111156108f0576000848401525b50505050565b7f4e487b7100000000000000000000000000000000000000000000000000000000600052602160045260246000fd5b7f6e656564206174206c656173742031206164647265737320666f72206e6f6e2d60008201527f7a65726f20646570746800000000000000000000000000000000000000000000602082015250565b60028110610985576109846108f6565b5b50565b61099181610827565b811461099c57600080fd5b50565b600281106109ac57600080fd5b50565b6109b881610882565b81146109c357600080fd5b5056fea2646970667358221220f570f24e5f9c5d6bc04db5a378778a843ea546d03bbf30dbc49dfefff1b0c63364736f6c63430008020033",
    "linkReferences": {}
  },
  "methodIdentifiers": {
    "depth()": "631c56ef",
    "recurse(address[],uint8[],uint32)": "cc4be4fd",
    "sender()": "67e404ce",
    "value()": "3fa4f245"
  },
  "id": 0
}