{
  "abi": [
    {
      "inputs": [],
      "name": "depth",
      "outputs": [
        {
          "internalType": "uint32",
          "name": "",
          "type": "uint32"
        }
      ],
      "stateMutability": "view",
      "type": "function"
    },
    {
      "inputs": [
        {
          "internalType": "address[]",
          "name": "addresses",
          "type": "address[]"
        },
        {
          "internalType": "uint32",
          "name": "max_depth",
          "type": "uint32"
        },
        {
          "internalType": "uint32",
          "name": "curr_depth",
          "type": "uint32"
        }
      ],
      "name": "recurse",
      "outputs": [],
      "stateMutability": "payable",
      "type": "function"
    },
    {
      "inputs": [],
      "name": "sender",
      "outputs": [
        {
          "internalType": "address",
          "name": "",
          "type": "address"
        }
      ],
      "stateMutability": "view",
      "type": "function"
    },
    {
      "inputs": [],
      "name": "value",
      "outputs": [
        {
          "internalType": "uint256",
          "name": "",
          "type": "uint256"
        }
      ],
      "stateMutability": "view",
      "type": "function"
    }
  ],
  "bytecode": {
    "object": "0x608060405234801561001057600080fd5b506108a0806100206000396000f3fe60806040526004361061003f5760003560e01c80633fa4f24514610044578063631c56ef1461006f57806367e404ce1461009a578063bb878333146100c5575b600080fd5b34801561005057600080fd5b506100596100e1565b604051610066919061065b565b60405180910390f35b34801561007b57600080fd5b506100846100e7565b6040516100919190610676565b60405180910390f35b3480156100a657600080fd5b506100af6100fb565b6040516100bc91906105e0565b60405180910390f35b6100df60048036038101906100da9190610458565b610121565b005b60015481565b60008054906101000a900463ffffffff1681565b600060049054906101000a900473ffffffffffffffffffffffffffffffffffffffff1681565b806000806101000a81548163ffffffff021916908363ffffffff16021790555033600060046101000a81548173ffffffffffffffffffffffffffffffffffffffff021916908373ffffffffffffffffffffffffffffffffffffffff160217905550346001819055508063ffffffff168263ffffffff1611156103b55760008163ffffffff1685859050116102115784846001878790506101c19190610731565b8181106101f7577f4e487b7100000000000000000000000000000000000000000000000000000000600052603260045260246000fd5b905060200201602081019061020c919061042f565b610266565b84848363ffffffff16818110610250577f4e487b7100000000000000000000000000000000000000000000000000000000600052603260045260246000fd5b9050602002016020810190610265919061042f565b5b905060008173ffffffffffffffffffffffffffffffffffffffff1686868660018761029191906106f7565b6040516024016102a494939291906105fb565b6040516020818303038152906040527fbb878333000000000000000000000000000000000000000000000000000000007bffffffffffffffffffffffffffffffffffffffffffffffffffffffff19166020820180517bffffffffffffffffffffffffffffffffffffffffffffffffffffffff838183161783525050505060405161032e91906105c9565b600060405180830381855af49150503d8060008114610369576040519150601f19603f3d011682016040523d82523d6000602084013e61036e565b606091505b50509050806103b2576040517f08c379a00000000000000000000000000000000000000000000000000000000081526004016103a99061063b565b60405180910390fd5b50505b50505050565b6000813590506103ca8161083c565b92915050565b60008083601f8401126103e257600080fd5b8235905067ffffffffffffffff8111156103fb57600080fd5b60208301915083602082028301111561041357600080fd5b9250929050565b60008135905061042981610853565b92915050565b60006020828403121561044157600080fd5b600061044f848285016103bb565b91505092915050565b6000806000806060858703121561046e57600080fd5b600085013567ffffffffffffffff81111561048857600080fd5b610494878288016103d0565b945094505060206104a78782880161041a565b92505060406104b88782880161041a565b91505092959194509250565b60006104d083836104dc565b60208301905092915050565b6104e581610765565b82525050565b6104f481610765565b82525050565b600061050683856106b3565b935061051182610691565b8060005b8581101561054a5761052782846106e0565b61053188826104c4565b975061053c836106a6565b925050600181019050610515565b5085925050509392505050565b60006105628261069b565b61056c81856106c4565b935061057c8185602086016107b1565b80840191505092915050565b6000610595601e836106cf565b91506105a082610813565b602082019050919050565b6105b481610797565b82525050565b6105c3816107a1565b82525050565b60006105d58284610557565b915081905092915050565b60006020820190506105f560008301846104eb565b92915050565b600060608201905081810360008301526106168186886104fa565b905061062560208301856105ba565b61063260408301846105ba565b95945050505050565b6000602082019050818103600083015261065481610588565b9050919050565b600060208201905061067060008301846105ab565b92915050565b600060208201905061068b60008301846105ba565b92915050565b6000819050919050565b600081519050919050565b6000602082019050919050565b600082825260208201905092915050565b600081905092915050565b600082825260208201905092915050565b60006106ef60208401846103bb565b905092915050565b6000610702826107a1565b915061070d836107a1565b92508263ffffffff03821115610726576107256107e4565b5b828201905092915050565b600061073c82610797565b915061074783610797565b92508282101561075a576107596107e4565b5b828203905092915050565b600061077082610777565b9050919050565b600073ffffffffffffffffffffffffffffffffffffffff82169050919050565b6000819050919050565b600063ffffffff82169050919050565b60005b838110156107cf5780820151818401526020810190506107b4565b838111156107de576000848401525b50505050565b7f4e487b7100000000000000000000000000000000000000000000000000000000600052601160045260246000fd5b7f7265637572736976652063616c6c206661696c656420696e20696e6e65720000600082015250565b61084581610765565b811461085057600080fd5b50565b61085c816107a1565b811461086757600080fd5b5056fea26469706673582212208b1d4be5f475007a4e797d25908c6912386bd480ffb4e8182ce8097c6d4bcf0564736f6c63430008020033",
    "linkReferences": {}
  },
  "methodIdentifiers": {
    "depth()": "631c56ef",
    "recurse(address[],uint32,uint32)": "bb878333",
    "sender()": "67e404ce",
    "value()": "3fa4f245"
  },
  "id": 0
}