{
  "abi": [
    {
      "inputs": [],
      "name": "depth",
      "outputs": [
        {
          "internalType": "uint32",
          "name": "",
          "type": "uint32"
        }
      ],
      "stateMutability": "view",
      "type": "function"
    },
    {
      "inputs": [
        {
          "internalType": "address[]",
          "name": "addresses",
          "type": "address[]"
        },
        {
          "internalType": "uint32",
          "name": "max_depth",
          "type": "uint32"
        }
      ],
      "name": "recurse",
      "outputs": [
        {
          "internalType": "bool",
          "name": "",
          "type": "bool"
        }
      ],
      "stateMutability": "payable",
      "type": "function"
    },
    {
      "inputs": [],
      "name": "sender",
      "outputs": [
        {
          "internalType": "address",
          "name": "",
          "type": "address"
        }
      ],
      "stateMutability": "view",
      "type": "function"
    },
    {
      "inputs": [],
      "name": "value",
      "outputs": [
        {
          "internalType": "uint256",
          "name": "",
          "type": "uint256"
        }
      ],
      "stateMutability": "view",
      "type": "function"
    }
  ],
  "bytecode": {
    "object": "0x608060405234801561001057600080fd5b50610662806100206000396000f3fe60806040526004361061003f5760003560e01c80633567ea3a146100445780633fa4f24514610074578063631c56ef1461009f57806367e404ce146100ca575b600080fd5b61005e600480360381019061005991906103be565b6100f5565b60405161006b91906104c4565b60405180910390f35b34801561008057600080fd5b506100896102e1565b60405161009691906104df565b60405180910390f35b3480156100ab57600080fd5b506100b46102e7565b6040516100c191906104fa565b60405180910390f35b3480156100d657600080fd5b506100df6102fb565b6040516100ec91906104a9565b60405180910390f35b6000808263ffffffff1614156101775760008060006101000a81548163ffffffff021916908363ffffffff16021790555033600060046101000a81548173ffffffffffffffffffffffffffffffffffffffff021916908373ffffffffffffffffffffffffffffffffffffffff16021790555034600181905550600190506102da565b600084849050141561018c57600090506102da565b6000848460008181106101c8577f4e487b7100000000000000000000000000000000000000000000000000000000600052603260045260246000fd5b90506020020160208101906101dd9190610395565b73ffffffffffffffffffffffffffffffffffffffff16836001604051602401610207929190610515565b6040516020818303038152906040527fc71e1719000000000000000000000000000000000000000000000000000000007bffffffffffffffffffffffffffffffffffffffffffffffffffffffff19166020820180517bffffffffffffffffffffffffffffffffffffffffffffffffffffffff83818316178352505050506040516102919190610492565b600060405180830381855af49150503d80600081146102cc576040519150601f19603f3d011682016040523d82523d6000602084013e6102d1565b606091505b50509050809150505b9392505050565b60015481565b60008054906101000a900463ffffffff1681565b600060049054906101000a900473ffffffffffffffffffffffffffffffffffffffff1681565b600081359050610330816105fe565b92915050565b60008083601f84011261034857600080fd5b8235905067ffffffffffffffff81111561036157600080fd5b60208301915083602082028301111561037957600080fd5b9250929050565b60008135905061038f81610615565b92915050565b6000602082840312156103a757600080fd5b60006103b584828501610321565b91505092915050565b6000806000604084860312156103d357600080fd5b600084013567ffffffffffffffff8111156103ed57600080fd5b6103f986828701610336565b9350935050602061040c86828701610380565b9150509250925092565b61041f81610554565b82525050565b61042e81610566565b82525050565b600061043f8261053e565b6104498185610549565b93506104598185602086016105cb565b80840191505092915050565b61046e816105b9565b82525050565b61047d81610592565b82525050565b61048c8161059c565b82525050565b600061049e8284610434565b915081905092915050565b60006020820190506104be6000830184610416565b92915050565b60006020820190506104d96000830184610425565b92915050565b60006020820190506104f46000830184610474565b92915050565b600060208201905061050f6000830184610483565b92915050565b600060408201905061052a6000830185610483565b6105376020830184610465565b9392505050565b600081519050919050565b600081905092915050565b600061055f82610572565b9050919050565b60008115159050919050565b600073ffffffffffffffffffffffffffffffffffffffff82169050919050565b6000819050919050565b600063ffffffff82169050919050565b600060ff82169050919050565b60006105c4826105ac565b9050919050565b60005b838110156105e95780820151818401526020810190506105ce565b838111156105f8576000848401525b50505050565b61060781610554565b811461061257600080fd5b50565b61061e8161059c565b811461062957600080fd5b5056fea2646970667358221220395d51a57a3dae0d2c68a4898da3e6333622ae5f22c6d0589ff0883b8284741964736f6c63430008020033",
    "linkReferences": {}
  },
  "methodIdentifiers": {
    "depth()": "631c56ef",
    "recurse(address[],uint32)": "3567ea3a",
    "sender()": "67e404ce",
    "value()": "3fa4f245"
  },
  "id": 0
}