{
  "abi": [
    {
      "inputs": [],
      "name": "depth",
      "outputs": [
        {
          "internalType": "uint32",
          "name": "",
          "type": "uint32"
        }
      ],
      "stateMutability": "view",
      "type": "function"
    },
    {
      "inputs": [
        {
          "internalType": "address[]",
          "name": "addresses",
          "type": "address[]"
        },
        {
          "internalType": "enum RecursiveCall.Action[]",
          "name": "actions",
          "type": "uint8[]"
        },
        {
          "internalType": "uint32",
          "name": "max_depth",
          "type": "uint32"
        },
        {
          "internalType": "uint32",
          "name": "curr_depth",
          "type": "uint32"
        }
      ],
      "name": "recurse",
      "outputs": [
        {
          "internalType": "bool",
          "name": "",
          "type": "bool"
        }
      ],
      "stateMutability": "payable",
      "type": "function"
    },
    {
      "inputs": [],
      "name": "sender",
      "outputs": [
        {
          "internalType": "address",
          "name": "",
          "type": "address"
        }
      ],
      "stateMutability": "view",
      "type": "function"
    },
    {
      "inputs": [],
      "name": "value",
      "outputs": [
        {
          "internalType": "uint256",
          "name": "",
          "type": "uint256"
        }
      ],
      "stateMutability": "view",
      "type": "function"
    }
  ],
  "bytecode": {
    "object": "0x608060405234801561001057600080fd5b50610d55806100206000396000f3fe60806040526004361061003f5760003560e01c80633fa4f245146100445780634885ccd91461006f578063631c56ef1461009f57806367e404ce146100ca575b600080fd5b34801561005057600080fd5b506100596100f5565b6040516100669190610a87565b60405180910390f35b610089600480360381019061008491906107aa565b6100fb565b6040516100969190610a6c565b60405180910390f35b3480156100ab57600080fd5b506100b4610674565b6040516100c19190610aa2565b60405180910390f35b3480156100d657600080fd5b506100df610688565b6040516100ec91906109fa565b60405180910390f35b60015481565b6000816000806101000a81548163ffffffff021916908363ffffffff16021790555033600060046101000a81548173ffffffffffffffffffffffffffffffffffffffff021916908373ffffffffffffffffffffffffffffffffffffffff160217905550346001819055506000600190506000868690508463ffffffff16106101df57868660018989905061018f9190610b8b565b8181106101c5577f4e487b7100000000000000000000000000000000000000000000000000000000600052603260045260246000fd5b90506020020160208101906101da9190610845565b610234565b86868563ffffffff1681811061021e577f4e487b7100000000000000000000000000000000000000000000000000000000600052603260045260246000fd5b90506020020160208101906102339190610845565b5b90506000878790508563ffffffff161061024e57306102a3565b89898663ffffffff1681811061028d577f4e487b7100000000000000000000000000000000000000000000000000000000600052603260045260246000fd5b90506020020160208101906102a29190610781565b5b905060008563ffffffff168763ffffffff16119050600060028111156102f2577f4e487b7100000000000000000000000000000000000000000000000000000000600052602160045260246000fd5b83600281111561032b577f4e487b7100000000000000000000000000000000000000000000000000000000600052602160045260246000fd5b1480156103355750805b1561044d578173ffffffffffffffffffffffffffffffffffffffff168b8b8b8b8b60018c6103639190610b51565b60405160240161037896959493929190610a15565b6040516020818303038152906040527f4885ccd9000000000000000000000000000000000000000000000000000000007bffffffffffffffffffffffffffffffffffffffffffffffffffffffff19166020820180517bffffffffffffffffffffffffffffffffffffffffffffffffffffffff838183161783525050505060405161040291906109e3565b600060405180830381855af49150503d806000811461043d576040519150601f19603f3d011682016040523d82523d6000602084013e610442565b606091505b505080945050610663565b60016002811115610487577f4e487b7100000000000000000000000000000000000000000000000000000000600052602160045260246000fd5b8360028111156104c0577f4e487b7100000000000000000000000000000000000000000000000000000000600052602160045260246000fd5b1480156104ca5750805b156105e4578173ffffffffffffffffffffffffffffffffffffffff168b8b8b8b8b60018c6104f89190610b51565b60405160240161050d96959493929190610a15565b6040516020818303038152906040527f4885ccd9000000000000000000000000000000000000000000000000000000007bffffffffffffffffffffffffffffffffffffffffffffffffffffffff19166020820180517bffffffffffffffffffffffffffffffffffffffffffffffffffffffff838183161783525050505060405161059791906109e3565b6000604051808303816000865af19150503d80600081146105d4576040519150601f19603f3d011682016040523d82523d6000602084013e6105d9565b606091505b505080945050610662565b60028081111561061d577f4e487b7100000000000000000000000000000000000000000000000000000000600052602160045260246000fd5b836002811115610656577f4e487b7100000000000000000000000000000000000000000000000000000000600052602160045260246000fd5b141561066157600080fd5b5b5b839450505050509695505050505050565b60008054906101000a900463ffffffff1681565b600060049054906101000a900473ffffffffffffffffffffffffffffffffffffffff1681565b6000813590506106bd81610ce1565b92915050565b60008083601f8401126106d557600080fd5b8235905067ffffffffffffffff8111156106ee57600080fd5b60208301915083602082028301111561070657600080fd5b9250929050565b60008083601f84011261071f57600080fd5b8235905067ffffffffffffffff81111561073857600080fd5b60208301915083602082028301111561075057600080fd5b9250929050565b60008135905061076681610cf8565b92915050565b60008135905061077b81610d08565b92915050565b60006020828403121561079357600080fd5b60006107a1848285016106ae565b91505092915050565b600080600080600080608087890312156107c357600080fd5b600087013567ffffffffffffffff8111156107dd57600080fd5b6107e989828a016106c3565b9650965050602087013567ffffffffffffffff81111561080857600080fd5b61081489828a0161070d565b9450945050604061082789828a0161076c565b925050606061083889828a0161076c565b9150509295509295509295565b60006020828403121561085757600080fd5b600061086584828501610757565b91505092915050565b600061087a838361089e565b60208301905092915050565b600061089283836109b6565b60208301905092915050565b6108a781610bbf565b82525050565b6108b681610bbf565b82525050565b60006108c88385610af6565b93506108d382610abd565b8060005b8581101561090c576108e98284610b23565b6108f3888261086e565b97506108fe83610adc565b9250506001810190506108d7565b5085925050509392505050565b60006109258385610b07565b935061093082610ac7565b8060005b85811015610969576109468284610b3a565b6109508882610886565b975061095b83610ae9565b925050600181019050610934565b5085925050509392505050565b61097f81610bd1565b82525050565b600061099082610ad1565b61099a8185610b18565b93506109aa818560208601610c3c565b80840191505092915050565b6109bf81610c2a565b82525050565b6109ce81610c10565b82525050565b6109dd81610c1a565b82525050565b60006109ef8284610985565b915081905092915050565b6000602082019050610a0f60008301846108ad565b92915050565b60006080820190508181036000830152610a3081888a6108bc565b90508181036020830152610a45818688610919565b9050610a5460408301856109d4565b610a6160608301846109d4565b979650505050505050565b6000602082019050610a816000830184610976565b92915050565b6000602082019050610a9c60008301846109c5565b92915050565b6000602082019050610ab760008301846109d4565b92915050565b6000819050919050565b6000819050919050565b600081519050919050565b6000602082019050919050565b6000602082019050919050565b600082825260208201905092915050565b600082825260208201905092915050565b600081905092915050565b6000610b3260208401846106ae565b905092915050565b6000610b496020840184610757565b905092915050565b6000610b5c82610c1a565b9150610b6783610c1a565b92508263ffffffff03821115610b8057610b7f610c6f565b5b828201905092915050565b6000610b9682610c10565b9150610ba183610c10565b925082821015610bb457610bb3610c6f565b5b828203905092915050565b6000610bca82610bf0565b9050919050565b60008115159050919050565b6000819050610beb82610ccd565b919050565b600073ffffffffffffffffffffffffffffffffffffffff82169050919050565b6000819050919050565b600063ffffffff82169050919050565b6000610c3582610bdd565b9050919050565b60005b83811015610c5a578082015181840152602081019050610c3f565b83811115610c69576000848401525b50505050565b7f4e487b7100000000000000000000000000000000000000000000000000000000600052601160045260246000fd5b7f4e487b7100000000000000000000000000000000000000000000000000000000600052602160045260246000fd5b60038110610cde57610cdd610c9e565b5b50565b610cea81610bbf565b8114610cf557600080fd5b50565b60038110610d0557600080fd5b50565b610d1181610c1a565b8114610d1c57600080fd5b5056fea2646970667358221220bebec0057e498402c3b2cf2fb13503fb38910b18e2d1bd498b9a4c15f86fb53e64736f6c63430008020033",
    "linkReferences": {}
  },
  "methodIdentifiers": {
    "depth()": "631c56ef",
    "recurse(address[],uint8[],uint32,uint32)": "4885ccd9",
    "sender()": "67e404ce",
    "value()": "3fa4f245"
  },
  "id": 0
}