{
  "abi": [
    {
      "inputs": [],
      "name": "depth",
      "outputs": [
        {
          "internalType": "uint32",
          "name": "",
          "type": "uint32"
        }
      ],
      "stateMutability": "view",
      "type": "function"
    },
    {
      "inputs": [
        {
          "internalType": "address[]",
          "name": "addresses",
          "type": "address[]"
        },
        {
          "internalType": "uint32",
          "name": "max_depth",
          "type": "uint32"
        }
      ],
      "name": "recurse",
      "outputs": [
        {
          "internalType": "bool",
          "name": "",
          "type": "bool"
        }
      ],
      "stateMutability": "payable",
      "type": "function"
    },
    {
      "inputs": [],
      "name": "sender",
      "outputs": [
        {
          "internalType": "address",
          "name": "",
          "type": "address"
        }
      ],
      "stateMutability": "view",
      "type": "function"
    },
    {
      "inputs": [],
      "name": "value",
      "outputs": [
        {
          "internalType": "uint256",
          "name": "",
          "type": "uint256"
        }
      ],
      "stateMutability": "view",
      "type": "function"
    }
  ],
  "bytecode": {
    "object": "0x608060405234801561001057600080fd5b50610814806100206000396000f3fe60806040526004361061003f5760003560e01c80633567ea3a146100445780633fa4f24514610074578063631c56ef1461009f57806367e404ce146100ca575b600080fd5b61005e600480360381019061005991906103f3565b6100f5565b60405161006b91906105e0565b60405180910390f35b34801561008057600080fd5b50610089610316565b604051610096919061061b565b60405180910390f35b3480156100ab57600080fd5b506100b461031c565b6040516100c19190610636565b60405180910390f35b3480156100d657600080fd5b506100df610330565b6040516100ec9190610585565b60405180910390f35b6000808263ffffffff1614156101775760008060006101000a81548163ffffffff021916908363ffffffff16021790555033600060046101000a81548173ffffffffffffffffffffffffffffffffffffffff021916908373ffffffffffffffffffffffffffffffffffffffff160217905550346001819055506001905061030f565b600084849050116101bd576040517f08c379a00000000000000000000000000000000000000000000000000000000081526004016101b4906105fb565b60405180910390fd5b6000848460008181106101f9577f4e487b7100000000000000000000000000000000000000000000000000000000600052603260045260246000fd5b905060200201602081019061020e91906103ca565b73ffffffffffffffffffffffffffffffffffffffff16858585600160405160240161023c94939291906105a0565b6040516020818303038152906040527fc71e1719000000000000000000000000000000000000000000000000000000007bffffffffffffffffffffffffffffffffffffffffffffffffffffffff19166020820180517bffffffffffffffffffffffffffffffffffffffffffffffffffffffff83818316178352505050506040516102c6919061056e565b600060405180830381855af49150503d8060008114610301576040519150601f19603f3d011682016040523d82523d6000602084013e610306565b606091505b50509050809150505b9392505050565b60015481565b60008054906101000a900463ffffffff1681565b600060049054906101000a900473ffffffffffffffffffffffffffffffffffffffff1681565b600081359050610365816107b0565b92915050565b60008083601f84011261037d57600080fd5b8235905067ffffffffffffffff81111561039657600080fd5b6020830191508360208202830111156103ae57600080fd5b9250929050565b6000813590506103c4816107c7565b92915050565b6000602082840312156103dc57600080fd5b60006103ea84828501610356565b91505092915050565b60008060006040848603121561040857600080fd5b600084013567ffffffffffffffff81111561042257600080fd5b61042e8682870161036b565b93509350506020610441868287016103b5565b9150509250925092565b60006104578383610463565b60208301905092915050565b61046c816106b7565b82525050565b61047b816106b7565b82525050565b600061048d8385610673565b935061049882610651565b8060005b858110156104d1576104ae82846106a0565b6104b8888261044b565b97506104c383610666565b92505060018101905061049c565b5085925050509392505050565b6104e7816106c9565b82525050565b60006104f88261065b565b6105028185610684565b935061051281856020860161072e565b80840191505092915050565b6105278161071c565b82525050565b600061053a602a8361068f565b915061054582610761565b604082019050919050565b610559816106f5565b82525050565b610568816106ff565b82525050565b600061057a82846104ed565b915081905092915050565b600060208201905061059a6000830184610472565b92915050565b600060608201905081810360008301526105bb818688610481565b90506105ca602083018561055f565b6105d7604083018461051e565b95945050505050565b60006020820190506105f560008301846104de565b92915050565b600060208201905081810360008301526106148161052d565b9050919050565b60006020820190506106306000830184610550565b92915050565b600060208201905061064b600083018461055f565b92915050565b6000819050919050565b600081519050919050565b6000602082019050919050565b600082825260208201905092915050565b600081905092915050565b600082825260208201905092915050565b60006106af6020840184610356565b905092915050565b60006106c2826106d5565b9050919050565b60008115159050919050565b600073ffffffffffffffffffffffffffffffffffffffff82169050919050565b6000819050919050565b600063ffffffff82169050919050565b600060ff82169050919050565b60006107278261070f565b9050919050565b60005b8381101561074c578082015181840152602081019050610731565b8381111561075b576000848401525b50505050565b7f6e656564206174206c656173742031206164647265737320666f72206e6f6e2d60008201527f7a65726f20646570746800000000000000000000000000000000000000000000602082015250565b6107b9816106b7565b81146107c457600080fd5b50565b6107d0816106ff565b81146107db57600080fd5b5056fea2646970667358221220555277a0b47590265dc8e8b79e9258588773c659deecb7567497754fb61faf9d64736f6c63430008020033",
    "linkReferences": {}
  },
  "methodIdentifiers": {
    "depth()": "631c56ef",
    "recurse(address[],uint32)": "3567ea3a",
    "sender()": "67e404ce",
    "value()": "3fa4f245"
  },
  "id": 0
}