{
  "abi": [
    {
      "inputs": [],
      "name": "depth",
      "outputs": [
        {
          "internalType": "uint32",
          "name": "",
          "type": "uint32"
        }
      ],
      "stateMutability": "view",
      "type": "function"
    },
    {
      "inputs": [
        {
          "internalType": "address[]",
          "name": "addresses",
          "type": "address[]"
        },
        {
          "internalType": "enum RecursiveCall.Action[]",
          "name": "actions",
          "type": "uint8[]"
        },
        {
          "internalType": "uint32",
          "name": "max_depth",
          "type": "uint32"
        },
        {
          "internalType": "uint32",
          "name": "curr_depth",
          "type": "uint32"
        }
      ],
      "name": "recurse",
      "outputs": [
        {
          "internalType": "bool",
          "name": "",
          "type": "bool"
        }
      ],
      "stateMutability": "payable",
      "type": "function"
    },
    {
      "inputs": [],
      "name": "sender",
      "outputs": [
        {
          "internalType": "address",
          "name": "",
          "type": "address"
        }
      ],
      "stateMutability": "view",
      "type": "function"
    },
    {
      "inputs": [],
      "name": "value",
      "outputs": [
        {
          "internalType": "uint256",
          "name": "",
          "type": "uint256"
        }
      ],
      "stateMutability": "view",
      "type": "function"
    }
  ],
  "bytecode": {
    "object": "0x608060405234801561001057600080fd5b50610cd3806100206000396000f3fe60806040526004361061003f5760003560e01c80633fa4f245146100445780634885ccd91461006f578063631c56ef1461009f57806367e404ce146100ca575b600080fd5b34801561005057600080fd5b506100596100f5565b6040516100669190610a05565b60405180910390f35b61008960048036038101906100849190610728565b6100fb565b60405161009691906109ea565b60405180910390f35b3480156100ab57600080fd5b506100b46105f2565b6040516100c19190610a20565b60405180910390f35b3480156100d657600080fd5b506100df610606565b6040516100ec9190610978565b60405180910390f35b60015481565b6000816000806101000a81548163ffffffff021916908363ffffffff16021790555033600060046101000a81548173ffffffffffffffffffffffffffffffffffffffff021916908373ffffffffffffffffffffffffffffffffffffffff160217905550346001819055506000600190508263ffffffff168463ffffffff1611156105e4576000808787905014610257578363ffffffff1687879050116101fd5786866001898990506101ad9190610b09565b8181106101e3577f4e487b7100000000000000000000000000000000000000000000000000000000600052603260045260246000fd5b90506020020160208101906101f891906107c3565b610252565b86868563ffffffff1681811061023c577f4e487b7100000000000000000000000000000000000000000000000000000000600052603260045260246000fd5b905060200201602081019061025191906107c3565b5b61025a565b60005b905060008463ffffffff168a8a90501161027457306102c9565b89898663ffffffff168181106102b3577f4e487b7100000000000000000000000000000000000000000000000000000000600052603260045260246000fd5b90506020020160208101906102c891906106ff565b5b905060006001811115610305577f4e487b7100000000000000000000000000000000000000000000000000000000600052602160045260246000fd5b82600181111561033e577f4e487b7100000000000000000000000000000000000000000000000000000000600052602160045260246000fd5b1415610457578073ffffffffffffffffffffffffffffffffffffffff168a8a8a8a8a60018b61036d9190610acf565b60405160240161038296959493929190610993565b6040516020818303038152906040527f4885ccd9000000000000000000000000000000000000000000000000000000007bffffffffffffffffffffffffffffffffffffffffffffffffffffffff19166020820180517bffffffffffffffffffffffffffffffffffffffffffffffffffffffff838183161783525050505060405161040c9190610961565b600060405180830381855af49150503d8060008114610447576040519150601f19603f3d011682016040523d82523d6000602084013e61044c565b606091505b5050809350506105e1565b600180811115610490577f4e487b7100000000000000000000000000000000000000000000000000000000600052602160045260246000fd5b8260018111156104c9577f4e487b7100000000000000000000000000000000000000000000000000000000600052602160045260246000fd5b14156105e0578073ffffffffffffffffffffffffffffffffffffffff168a8a8a8a8a60018b6104f89190610acf565b60405160240161050d96959493929190610993565b6040516020818303038152906040527f4885ccd9000000000000000000000000000000000000000000000000000000007bffffffffffffffffffffffffffffffffffffffffffffffffffffffff19166020820180517bffffffffffffffffffffffffffffffffffffffffffffffffffffffff83818316178352505050506040516105979190610961565b6000604051808303816000865af19150503d80600081146105d4576040519150601f19603f3d011682016040523d82523d6000602084013e6105d9565b606091505b5050809350505b5b50505b809150509695505050505050565b60008054906101000a900463ffffffff1681565b600060049054906101000a900473ffffffffffffffffffffffffffffffffffffffff1681565b60008135905061063b81610c5f565b92915050565b60008083601f84011261065357600080fd5b8235905067ffffffffffffffff81111561066c57600080fd5b60208301915083602082028301111561068457600080fd5b9250929050565b60008083601f84011261069d57600080fd5b8235905067ffffffffffffffff8111156106b657600080fd5b6020830191508360208202830111156106ce57600080fd5b9250929050565b6000813590506106e481610c76565b92915050565b6000813590506106f981610c86565b92915050565b60006020828403121561071157600080fd5b600061071f8482850161062c565b91505092915050565b6000806000806000806080878903121561074157600080fd5b600087013567ffffffffffffffff81111561075b57600080fd5b61076789828a01610641565b9650965050602087013567ffffffffffffffff81111561078657600080fd5b61079289828a0161068b565b945094505060406107a589828a016106ea565b92505060606107b689828a016106ea565b9150509295509295509295565b6000602082840312156107d557600080fd5b60006107e3848285016106d5565b91505092915050565b60006107f8838361081c565b60208301905092915050565b60006108108383610934565b60208301905092915050565b61082581610b3d565b82525050565b61083481610b3d565b82525050565b60006108468385610a74565b935061085182610a3b565b8060005b8581101561088a576108678284610aa1565b61087188826107ec565b975061087c83610a5a565b925050600181019050610855565b5085925050509392505050565b60006108a38385610a85565b93506108ae82610a45565b8060005b858110156108e7576108c48284610ab8565b6108ce8882610804565b97506108d983610a67565b9250506001810190506108b2565b5085925050509392505050565b6108fd81610b4f565b82525050565b600061090e82610a4f565b6109188185610a96565b9350610928818560208601610bba565b80840191505092915050565b61093d81610ba8565b82525050565b61094c81610b8e565b82525050565b61095b81610b98565b82525050565b600061096d8284610903565b915081905092915050565b600060208201905061098d600083018461082b565b92915050565b600060808201905081810360008301526109ae81888a61083a565b905081810360208301526109c3818688610897565b90506109d26040830185610952565b6109df6060830184610952565b979650505050505050565b60006020820190506109ff60008301846108f4565b92915050565b6000602082019050610a1a6000830184610943565b92915050565b6000602082019050610a356000830184610952565b92915050565b6000819050919050565b6000819050919050565b600081519050919050565b6000602082019050919050565b6000602082019050919050565b600082825260208201905092915050565b600082825260208201905092915050565b600081905092915050565b6000610ab0602084018461062c565b905092915050565b6000610ac760208401846106d5565b905092915050565b6000610ada82610b98565b9150610ae583610b98565b92508263ffffffff03821115610afe57610afd610bed565b5b828201905092915050565b6000610b1482610b8e565b9150610b1f83610b8e565b925082821015610b3257610b31610bed565b5b828203905092915050565b6000610b4882610b6e565b9050919050565b60008115159050919050565b6000819050610b6982610c4b565b919050565b600073ffffffffffffffffffffffffffffffffffffffff82169050919050565b6000819050919050565b600063ffffffff82169050919050565b6000610bb382610b5b565b9050919050565b60005b83811015610bd8578082015181840152602081019050610bbd565b83811115610be7576000848401525b50505050565b7f4e487b7100000000000000000000000000000000000000000000000000000000600052601160045260246000fd5b7f4e487b7100000000000000000000000000000000000000000000000000000000600052602160045260246000fd5b60028110610c5c57610c5b610c1c565b5b50565b610c6881610b3d565b8114610c7357600080fd5b50565b60028110610c8357600080fd5b50565b610c8f81610b98565b8114610c9a57600080fd5b5056fea26469706673582212203bddfccb4b42ac75adbf8ca1ec4202091c93e58370cbca65204f7b9f1a0dc6cc64736f6c63430008020033",
    "linkReferences": {}
  },
  "methodIdentifiers": {
    "depth()": "631c56ef",
    "recurse(address[],uint8[],uint32,uint32)": "4885ccd9",
    "sender()": "67e404ce",
    "value()": "3fa4f245"
  },
  "id": 0
}