{
  "abi": [
    {
      "inputs": [],
      "name": "depth",
      "outputs": [
        {
          "internalType": "uint32",
          "name": "",
          "type": "uint32"
        }
      ],
      "stateMutability": "view",
      "type": "function"
    },
    {
      "inputs": [
        {
          "internalType": "address[]",
          "name": "addresses",
          "type": "address[]"
        },
        {
          "internalType": "uint32",
          "name": "max_depth",
          "type": "uint32"
        },
        {
          "internalType": "uint32",
          "name": "curr_depth",
          "type": "uint32"
        }
      ],
      "name": "recurse",
      "outputs": [],
      "stateMutability": "payable",
      "type": "function"
    },
    {
      "inputs": [],
      "name": "sender",
      "outputs": [
        {
          "internalType": "address",
          "name": "",
          "type": "address"
        }
      ],
      "stateMutability": "view",
      "type": "function"
    },
    {
      "inputs": [],
      "name": "value",
      "outputs": [
        {
          "internalType": "uint256",
          "name": "",
          "type": "uint256"
        }
      ],
      "stateMutability": "view",
      "type": "function"
    }
  ],
  "bytecode": {
    "object": "0x608060405234801561001057600080fd5b50610810806100206000396000f3fe60806040526004361061003f5760003560e01c80633fa4f24514610044578063631c56ef1461006f57806367e404ce1461009a578063bb878333146100c5575b600080fd5b34801561005057600080fd5b506100596100e1565b60405161006691906105ff565b60405180910390f35b34801561007b57600080fd5b506100846100e7565b604051610091919061061a565b60405180910390f35b3480156100a657600080fd5b506100af6100fb565b6040516100bc9190610584565b60405180910390f35b6100df60048036038101906100da91906103fc565b610121565b005b60015481565b60008054906101000a900463ffffffff1681565b600060049054906101000a900473ffffffffffffffffffffffffffffffffffffffff1681565b806000806101000a81548163ffffffff021916908363ffffffff16021790555033600060046101000a81548173ffffffffffffffffffffffffffffffffffffffff021916908373ffffffffffffffffffffffffffffffffffffffff160217905550346001819055508063ffffffff168263ffffffff1611156103595760008163ffffffff1685859050116101b5573061020a565b84848363ffffffff168181106101f4577f4e487b7100000000000000000000000000000000000000000000000000000000600052603260045260246000fd5b905060200201602081019061020991906103d3565b5b905060008173ffffffffffffffffffffffffffffffffffffffff16868686600187610235919061069b565b604051602401610248949392919061059f565b6040516020818303038152906040527fc71e1719000000000000000000000000000000000000000000000000000000007bffffffffffffffffffffffffffffffffffffffffffffffffffffffff19166020820180517bffffffffffffffffffffffffffffffffffffffffffffffffffffffff83818316178352505050506040516102d2919061056d565b600060405180830381855af49150503d806000811461030d576040519150601f19603f3d011682016040523d82523d6000602084013e610312565b606091505b5050905080610356576040517f08c379a000000000000000000000000000000000000000000000000000000000815260040161034d906105df565b60405180910390fd5b50505b50505050565b60008135905061036e816107ac565b92915050565b60008083601f84011261038657600080fd5b8235905067ffffffffffffffff81111561039f57600080fd5b6020830191508360208202830111156103b757600080fd5b9250929050565b6000813590506103cd816107c3565b92915050565b6000602082840312156103e557600080fd5b60006103f38482850161035f565b91505092915050565b6000806000806060858703121561041257600080fd5b600085013567ffffffffffffffff81111561042c57600080fd5b61043887828801610374565b9450945050602061044b878288016103be565b925050604061045c878288016103be565b91505092959194509250565b60006104748383610480565b60208301905092915050565b610489816106d5565b82525050565b610498816106d5565b82525050565b60006104aa8385610657565b93506104b582610635565b8060005b858110156104ee576104cb8284610684565b6104d58882610468565b97506104e08361064a565b9250506001810190506104b9565b5085925050509392505050565b60006105068261063f565b6105108185610668565b9350610520818560208601610721565b80840191505092915050565b6000610539601e83610673565b915061054482610783565b602082019050919050565b61055881610707565b82525050565b61056781610711565b82525050565b600061057982846104fb565b915081905092915050565b6000602082019050610599600083018461048f565b92915050565b600060608201905081810360008301526105ba81868861049e565b90506105c9602083018561055e565b6105d6604083018461055e565b95945050505050565b600060208201905081810360008301526105f88161052c565b9050919050565b6000602082019050610614600083018461054f565b92915050565b600060208201905061062f600083018461055e565b92915050565b6000819050919050565b600081519050919050565b6000602082019050919050565b600082825260208201905092915050565b600081905092915050565b600082825260208201905092915050565b6000610693602084018461035f565b905092915050565b60006106a682610711565b91506106b183610711565b92508263ffffffff038211156106ca576106c9610754565b5b828201905092915050565b60006106e0826106e7565b9050919050565b600073ffffffffffffffffffffffffffffffffffffffff82169050919050565b6000819050919050565b600063ffffffff82169050919050565b60005b8381101561073f578082015181840152602081019050610724565b8381111561074e576000848401525b50505050565b7f4e487b7100000000000000000000000000000000000000000000000000000000600052601160045260246000fd5b7f7265637572736976652063616c6c206661696c656420696e20696e6e65720000600082015250565b6107b5816106d5565b81146107c057600080fd5b50565b6107cc81610711565b81146107d757600080fd5b5056fea26469706673582212202bc263bf0bd2fb372c29cd8a0a52aa4c705b95738896be1b1d7640595e6a9eec64736f6c63430008020033",
    "linkReferences": {}
  },
  "methodIdentifiers": {
    "depth()": "631c56ef",
    "recurse(address[],uint32,uint32)": "bb878333",
    "sender()": "67e404ce",
    "value()": "3fa4f245"
  },
  "id": 0
}