{
  "abi": [
    {
      "inputs": [
        {
          "internalType": "bytes",
          "name": "transientContractInitializationCode",
          "type": "bytes"
        }
      ],
      "stateMutability": "nonpayable",
      "type": "constructor"
    },
    {
      "anonymous": false,
      "inputs": [
        {
          "indexed": false,
          "internalType": "address",
          "name": "metamorphicContract",
          "type": "address"
        },
        {
          "indexed": false,
          "internalType": "address",
          "name": "newImplementation",
          "type": "address"
        }
      ],
      "name": "Metamorphosed",
      "type": "event"
    },
    {
      "anonymous": false,
      "inputs": [
        {
          "indexed": false,
          "internalType": "address",
          "name": "metamorphicContract",
          "type": "address"
        },
        {
          "indexed": false,
          "internalType": "address",
          "name": "transientContract",
          "type": "address"
        }
      ],
      "name": "MetamorphosedWithConstructor",
      "type": "event"
    },
    {
      "inputs": [
        {
          "internalType": "bytes32",
          "name": "salt",
          "type": "bytes32"
        },
        {
          "internalType": "bytes",
          "name": "implementationContractInitializationCode",
          "type": "bytes"
        },
        {
          "internalType": "bytes",
          "name": "metamorphicContractInitializationCalldata",
          "type": "bytes"
        }
      ],
      "name": "deployMetamorphicContract",
      "outputs": [
        {
          "internalType": "address",
          "name": "metamorphicContractAddress",
          "type": "address"
        }
      ],
      "stateMutability": "payable",
      "type": "function"
    },
    {
      "inputs": [
        {
          "internalType": "bytes32",
          "name": "salt",
          "type": "bytes32"
        },
        {
          "internalType": "address",
          "name": "implementationContract",
          "type": "address"
        },
        {
          "internalType": "bytes",
          "name": "metamorphicContractInitializationCalldata",
          "type": "bytes"
        }
      ],
      "name": "deployMetamorphicContractFromExistingImplementation",
      "outputs": [
        {
          "internalType": "address",
          "name": "metamorphicContractAddress",
          "type": "address"
        }
      ],
      "stateMutability": "payable",
      "type": "function"
    },
    {
      "inputs": [
        {
          "internalType": "bytes32",
          "name": "salt",
          "type": "bytes32"
        },
        {
          "internalType": "bytes",
          "name": "initializationCode",
          "type": "bytes"
        }
      ],
      "name": "deployMetamorphicContractWithConstructor",
      "outputs": [
        {
          "internalType": "address",
          "name": "metamorphicContractAddress",
          "type": "address"
        }
      ],
      "stateMutability": "payable",
      "type": "function"
    },
    {
      "inputs": [
        {
          "internalType": "bytes32",
          "name": "salt",
          "type": "bytes32"
        }
      ],
      "name": "findMetamorphicContractAddress",
      "outputs": [
        {
          "internalType": "address",
          "name": "metamorphicContractAddress",
          "type": "address"
        }
      ],
      "stateMutability": "view",
      "type": "function"
    },
    {
      "inputs": [
        {
          "internalType": "bytes32",
          "name": "salt",
          "type": "bytes32"
        }
      ],
      "name": "findMetamorphicContractAddressWithConstructor",
      "outputs": [
        {
          "internalType": "address",
          "name": "metamorphicContractAddress",
          "type": "address"
        }
      ],
      "stateMutability": "view",
      "type": "function"
    },
    {
      "inputs": [
        {
          "internalType": "bytes32",
          "name": "salt",
          "type": "bytes32"
        }
      ],
      "name": "findTransientContractAddress",
      "outputs": [
        {
          "internalType": "address",
          "name": "transientContractAddress",
          "type": "address"
        }
      ],
      "stateMutability": "view",
      "type": "function"
    },
    {
      "inputs": [],
      "name": "getImplementation",
      "outputs": [
        {
          "internalType": "address",
          "name": "implementation",
          "type": "address"
        }
      ],
      "stateMutability": "view",
      "type": "function"
    },
    {
      "inputs": [
        {
          "internalType": "address",
          "name": "metamorphicContractAddress",
          "type": "address"
        }
      ],
      "name": "getImplementationContractAddress",
      "outputs": [
        {
          "internalType": "address",
          "name": "implementationContractAddress",
          "type": "address"
        }
      ],
      "stateMutability": "view",
      "type": "function"
    },
    {
      "inputs": [],
      "name": "getInitializationCode",
      "outputs": [
        {
          "internalType": "bytes",
          "name": "initializationCode",
          "type": "bytes"
        }
      ],
      "stateMutability": "view",
      "type": "function"
    },
    {
      "inputs": [],
      "name": "getMetamorphicContractInitializationCode",
      "outputs": [
        {
          "internalType": "bytes",
          "name": "metamorphicContractInitializationCode",
          "type": "bytes"
        }
      ],
      "stateMutability": "view",
      "type": "function"
    },
    {
      "inputs": [],
      "name": "getMetamorphicContractInitializationCodeHash",
      "outputs": [
        {
          "internalType": "bytes32",
          "name": "metamorphicContractInitializationCodeHash",
          "type": "bytes32"
        }
      ],
      "stateMutability": "view",
      "type": "function"
    },
    {
      "inputs": [
        {
          "internalType": "address",
          "name": "transientContractAddress",
          "type": "address"
        }
      ],
      "name": "getMetamorphicContractInstanceInitializationCode",
      "outputs": [
        {
          "internalType": "bytes",
          "name": "initializationCode",
          "type": "bytes"
        }
      ],
      "stateMutability": "view",
      "type": "function"
    },
    {
      "inputs": [],
      "name": "getTransientContractInitializationCode",
      "outputs": [
        {
          "internalType": "bytes",
          "name": "transientContractInitializationCode",
          "type": "bytes"
        }
      ],
      "stateMutability": "view",
      "type": "function"
    },
    {
      "inputs": [],
      "name": "getTransientContractInitializationCodeHash",
      "outputs": [
        {
          "internalType": "bytes32",
          "name": "transientContractInitializationCodeHash",
          "type": "bytes32"
        }
      ],
      "stateMutability": "view",
      "type": "function"
    }
  ],
  "bytecode": {
    "object": "0x60806040523480156200001157600080fd5b506040516200212e3803806200212e8339818101604052810190620000379190620002b8565b6040518060400160405280601d81526020017f5860208158601c335a63aaf10f428752fa158151803b80938091923cf3000000815250600090805190602001906200008492919062000105565b50600060405160200162000099919062000388565b604051602081830303815290604052805190602001206001819055508060029080519060200190620000cd92919062000196565b506002604051602001620000e2919062000388565b604051602081830303815290604052805190602001206003819055505062000531565b828054620001139062000456565b90600052602060002090601f01602090048101928262000137576000855562000183565b82601f106200015257805160ff191683800117855562000183565b8280016001018555821562000183579182015b828111156200018257825182559160200191906001019062000165565b5b50905062000192919062000227565b5090565b828054620001a49062000456565b90600052602060002090601f016020900481019282620001c8576000855562000214565b82601f10620001e357805160ff191683800117855562000214565b8280016001018555821562000214579182015b8281111562000213578251825591602001919060010190620001f6565b5b50905062000223919062000227565b5090565b5b808211156200024257600081600090555060010162000228565b5090565b60006200025d6200025784620003ca565b620003a1565b9050828152602081018484840111156200027657600080fd5b6200028384828562000420565b509392505050565b600082601f8301126200029d57600080fd5b8151620002af84826020860162000246565b91505092915050565b600060208284031215620002cb57600080fd5b600082015167ffffffffffffffff811115620002e657600080fd5b620002f4848285016200028b565b91505092915050565b600081546200030c8162000456565b62000318818662000415565b9450600182166000811462000336576001811462000348576200037f565b60ff198316865281860193506200037f565b620003538562000400565b60005b83811015620003775781548189015260018201915060208101905062000356565b838801955050505b50505092915050565b6000620003968284620002fd565b915081905092915050565b6000620003ad620003c0565b9050620003bb82826200048c565b919050565b6000604051905090565b600067ffffffffffffffff821115620003e857620003e7620004f1565b5b620003f38262000520565b9050602081019050919050565b60008190508160005260206000209050919050565b600081905092915050565b60005b838110156200044057808201518184015260208101905062000423565b8381111562000450576000848401525b50505050565b600060028204905060018216806200046f57607f821691505b60208210811415620004865762000485620004c2565b5b50919050565b620004978262000520565b810181811067ffffffffffffffff82111715620004b957620004b8620004f1565b5b80604052505050565b7f4e487b7100000000000000000000000000000000000000000000000000000000600052602260045260246000fd5b7f4e487b7100000000000000000000000000000000000000000000000000000000600052604160045260246000fd5b6000601f19601f8301169050919050565b611bed80620005416000396000f3fe6080604052600436106100dd5760003560e01c80636f8bda371161007f578063aaf10f4211610059578063aaf10f42146102d5578063b5714de614610300578063b7d2b0b41461033d578063c762ef581461037a576100dd565b80636f8bda371461023857806382cd583314610268578063a32cfb6914610298576100dd565b806357b9f523116100bb57806357b9f5231461016857806359449e5514610193578063641b2afa146101d0578063687c42fd146101fb576100dd565b8063010fcf85146100e25780630563ef931461010d5780632c51145c14610138575b600080fd5b3480156100ee57600080fd5b506100f76103a5565b604051610104919061173d565b60405180910390f35b34801561011957600080fd5b506101226103af565b60405161012f9190611758565b60405180910390f35b610152600480360381019061014d91906113cc565b610441565b60405161015f91906116f9565b60405180910390f35b34801561017457600080fd5b5061017d61066d565b60405161018a9190611758565b60405180910390f35b34801561019f57600080fd5b506101ba60048036038101906101b5919061130e565b61073c565b6040516101c79190611758565b60405180910390f35b3480156101dc57600080fd5b506101e561080d565b6040516101f2919061173d565b60405180910390f35b34801561020757600080fd5b50610222600480360381019061021d9190611337565b610817565b60405161022f91906116f9565b60405180910390f35b610252600480360381019061024d9190611424565b610831565b60405161025f91906116f9565b60405180910390f35b610282600480360381019061027d9190611360565b610c5c565b60405161028f91906116f9565b60405180910390f35b3480156102a457600080fd5b506102bf60048036038101906102ba9190611337565b610fba565b6040516102cc91906116f9565b60405180910390f35b3480156102e157600080fd5b506102ea610fcc565b6040516102f791906116f9565b60405180910390f35b34801561030c57600080fd5b5061032760048036038101906103229190611337565b611033565b60405161033491906116f9565b60405180910390f35b34801561034957600080fd5b50610364600480360381019061035f919061130e565b611045565b60405161037191906116f9565b60405180910390f35b34801561038657600080fd5b5061038f6110ae565b60405161039c9190611758565b60405180910390f35b6000600354905090565b6060600280546103be906118f8565b80601f01602080910402602001604051908101604052809291908181526020018280546103ea906118f8565b80156104375780601f1061040c57610100808354040283529160200191610437565b820191906000526020600020905b81548152906001019060200180831161041a57829003601f168201915b5050505050905090565b6000833373ffffffffffffffffffffffffffffffffffffffff168160601c73ffffffffffffffffffffffffffffffffffffffff16146104b5576040517f08c379a00000000000000000000000000000000000000000000000000000000081526004016104ac9061179a565b60405180910390fd5b6000600280546104c4906118f8565b80601f01602080910402602001604051908101604052809291908181526020018280546104f0906118f8565b801561053d5780601f106105125761010080835404028352916020019161053d565b820191906000526020600020905b81548152906001019060200180831161052057829003601f168201915b5050505050905060008061055088611140565b90508686600560008473ffffffffffffffffffffffffffffffffffffffff1673ffffffffffffffffffffffffffffffffffffffff16815260200190815260200160002091906105a09291906111f7565b5082602001835189818334f5935050508073ffffffffffffffffffffffffffffffffffffffff168273ffffffffffffffffffffffffffffffffffffffff161461061e576040517f08c379a0000000000000000000000000000000000000000000000000000000008152600401610615906117da565b60405180910390fd5b61062781611179565b94507f5a450ff2319c286ed6a7b238e478f4c3c97d76f47704d5d9f4a568eb842afbd3858260405161065a929190611714565b60405180910390a1505050509392505050565b6060600560003373ffffffffffffffffffffffffffffffffffffffff1673ffffffffffffffffffffffffffffffffffffffff16815260200190815260200160002080546106b9906118f8565b80601f01602080910402602001604051908101604052809291908181526020018280546106e5906118f8565b80156107325780601f1061070757610100808354040283529160200191610732565b820191906000526020600020905b81548152906001019060200180831161071557829003601f168201915b5050505050905090565b6060600560008373ffffffffffffffffffffffffffffffffffffffff1673ffffffffffffffffffffffffffffffffffffffff1681526020019081526020016000208054610788906118f8565b80601f01602080910402602001604051908101604052809291908181526020018280546107b4906118f8565b80156108015780601f106107d657610100808354040283529160200191610801565b820191906000526020600020905b8154815290600101906020018083116107e457829003601f168201915b50505050509050919050565b6000600154905090565b600061082a61082583611140565b611179565b9050919050565b6000853373ffffffffffffffffffffffffffffffffffffffff168160601c73ffffffffffffffffffffffffffffffffffffffff16146108a5576040517f08c379a000000000000000000000000000000000000000000000000000000000815260040161089c9061179a565b60405180910390fd5b600086868080601f016020809104026020016040519081016040528093929190818152602001838380828437600081840152601f19601f820116905080830192505050505050509050600085858080601f016020809104026020016040519081016040528093929190818152602001838380828437600081840152601f19601f8201169050808301925050505050505090506000808054610945906118f8565b80601f0160208091040260200160405190810160405280929190818152602001828054610971906118f8565b80156109be5780601f10610993576101008083540402835291602001916109be565b820191906000526020600020905b8154815290600101906020018083116109a157829003601f168201915b5050505050905060006109d08b6111be565b9550600084602001855180826000f092505050600073ffffffffffffffffffffffffffffffffffffffff168173ffffffffffffffffffffffffffffffffffffffff161415610a53576040517f08c379a0000000000000000000000000000000000000000000000000000000008152600401610a4a906117ba565b60405180910390fd5b80600460008973ffffffffffffffffffffffffffffffffffffffff1673ffffffffffffffffffffffffffffffffffffffff16815260200190815260200160002060006101000a81548173ffffffffffffffffffffffffffffffffffffffff021916908373ffffffffffffffffffffffffffffffffffffffff1602179055508260200183518d81836000f5935050508673ffffffffffffffffffffffffffffffffffffffff168273ffffffffffffffffffffffffffffffffffffffff1614610b4f576040517f08c379a0000000000000000000000000000000000000000000000000000000008152600401610b46906117fa565b60405180910390fd5b600084511180610b5f5750600034115b15610c145760008273ffffffffffffffffffffffffffffffffffffffff163486604051610b8c919061169a565b60006040518083038185875af1925050503d8060008114610bc9576040519150601f19603f3d011682016040523d82523d6000602084013e610bce565b606091505b5050905080610c12576040517f08c379a0000000000000000000000000000000000000000000000000000000008152600401610c099061177a565b60405180910390fd5b505b7f2d2abf98ee3d10557b7f9aca6b41a1c0ee9095804e5dc6caa3c836995ceaeffb8282604051610c45929190611714565b60405180910390a150505050505095945050505050565b6000843373ffffffffffffffffffffffffffffffffffffffff168160601c73ffffffffffffffffffffffffffffffffffffffff1614610cd0576040517f08c379a0000000000000000000000000000000000000000000000000000000008152600401610cc79061179a565b60405180910390fd5b600084848080601f016020809104026020016040519081016040528093929190818152602001838380828437600081840152601f19601f8201169050808301925050505050505090506000808054610d27906118f8565b80601f0160208091040260200160405190810160405280929190818152602001828054610d53906118f8565b8015610da05780601f10610d7557610100808354040283529160200191610da0565b820191906000526020600020905b815481529060010190602001808311610d8357829003601f168201915b505050505090506000610db2896111be565b945087600460008773ffffffffffffffffffffffffffffffffffffffff1673ffffffffffffffffffffffffffffffffffffffff16815260200190815260200160002060006101000a81548173ffffffffffffffffffffffffffffffffffffffff021916908373ffffffffffffffffffffffffffffffffffffffff1602179055508160200182518a81836000f5925050508473ffffffffffffffffffffffffffffffffffffffff168173ffffffffffffffffffffffffffffffffffffffff1614610eb0576040517f08c379a0000000000000000000000000000000000000000000000000000000008152600401610ea7906117fa565b60405180910390fd5b600083511180610ec05750600034115b15610f755760008573ffffffffffffffffffffffffffffffffffffffff163485604051610eed919061169a565b60006040518083038185875af1925050503d8060008114610f2a576040519150601f19603f3d011682016040523d82523d6000602084013e610f2f565b606091505b5050905080610f73576040517f08c379a0000000000000000000000000000000000000000000000000000000008152600401610f6a9061177a565b60405180910390fd5b505b7f2d2abf98ee3d10557b7f9aca6b41a1c0ee9095804e5dc6caa3c836995ceaeffb8189604051610fa6929190611714565b60405180910390a150505050949350505050565b6000610fc582611140565b9050919050565b6000600460003373ffffffffffffffffffffffffffffffffffffffff1673ffffffffffffffffffffffffffffffffffffffff16815260200190815260200160002060009054906101000a900473ffffffffffffffffffffffffffffffffffffffff16905090565b600061103e826111be565b9050919050565b6000600460008373ffffffffffffffffffffffffffffffffffffffff1673ffffffffffffffffffffffffffffffffffffffff16815260200190815260200160002060009054906101000a900473ffffffffffffffffffffffffffffffffffffffff169050919050565b6060600080546110bd906118f8565b80601f01602080910402602001604051908101604052809291908181526020018280546110e9906118f8565b80156111365780601f1061110b57610100808354040283529160200191611136565b820191906000526020600020905b81548152906001019060200180831161111957829003601f168201915b5050505050905090565b60003082600354604051602001611159939291906116b1565b6040516020818303038152906040528051906020012060001c9050919050565b600060d660f81b609460f81b83600160f81b60405160200161119e949392919061164c565b6040516020818303038152906040528051906020012060001c9050919050565b600030826001546040516020016111d7939291906116b1565b6040516020818303038152906040528051906020012060001c9050919050565b828054611203906118f8565b90600052602060002090601f016020900481019282611225576000855561126c565b82601f1061123e57803560ff191683800117855561126c565b8280016001018555821561126c579182015b8281111561126b578235825591602001919060010190611250565b5b509050611279919061127d565b5090565b5b8082111561129657600081600090555060010161127e565b5090565b6000813590506112a981611b89565b92915050565b6000813590506112be81611ba0565b92915050565b60008083601f8401126112d657600080fd5b8235905067ffffffffffffffff8111156112ef57600080fd5b60208301915083600182028301111561130757600080fd5b9250929050565b60006020828403121561132057600080fd5b600061132e8482850161129a565b91505092915050565b60006020828403121561134957600080fd5b6000611357848285016112af565b91505092915050565b6000806000806060858703121561137657600080fd5b6000611384878288016112af565b94505060206113958782880161129a565b935050604085013567ffffffffffffffff8111156113b257600080fd5b6113be878288016112c4565b925092505092959194509250565b6000806000604084860312156113e157600080fd5b60006113ef868287016112af565b935050602084013567ffffffffffffffff81111561140c57600080fd5b611418868287016112c4565b92509250509250925092565b60008060008060006060868803121561143c57600080fd5b600061144a888289016112af565b955050602086013567ffffffffffffffff81111561146757600080fd5b611473888289016112c4565b9450945050604086013567ffffffffffffffff81111561149257600080fd5b61149e888289016112c4565b92509250509295509295909350565b6114b68161185d565b82525050565b6114cd6114c88261185d565b61192a565b82525050565b6114e46114df8261186f565b61193c565b82525050565b6114f38161189b565b82525050565b61150a6115058261189b565b611946565b82525050565b600061151b8261181a565b6115258185611825565b93506115358185602086016118c5565b61153e81611991565b840191505092915050565b60006115548261181a565b61155e8185611836565b935061156e8185602086016118c5565b80840191505092915050565b6000611587600183611852565b9150611592826119af565b600182019050919050565b60006115aa603283611841565b91506115b5826119d8565b604082019050919050565b60006115cd604583611841565b91506115d882611a27565b606082019050919050565b60006115f0602083611841565b91506115fb82611a9c565b602082019050919050565b6000611613604583611841565b915061161e82611ac5565b606082019050919050565b6000611636602e83611841565b915061164182611b3a565b604082019050919050565b600061165882876114d3565b60018201915061166882866114d3565b60018201915061167882856114bc565b60148201915061168882846114d3565b60018201915081905095945050505050565b60006116a68284611549565b915081905092915050565b60006116bc8261157a565b91506116c882866114bc565b6014820191506116d882856114f9565b6020820191506116e882846114f9565b602082019150819050949350505050565b600060208201905061170e60008301846114ad565b92915050565b600060408201905061172960008301856114ad565b61173660208301846114ad565b9392505050565b600060208201905061175260008301846114ea565b92915050565b600060208201905081810360008301526117728184611510565b905092915050565b600060208201905081810360008301526117938161159d565b9050919050565b600060208201905081810360008301526117b3816115c0565b9050919050565b600060208201905081810360008301526117d3816115e3565b9050919050565b600060208201905081810360008301526117f381611606565b9050919050565b6000602082019050818103600083015261181381611629565b9050919050565b600081519050919050565b600082825260208201905092915050565b600081905092915050565b600082825260208201905092915050565b600081905092915050565b6000611868826118a5565b9050919050565b60007fff0000000000000000000000000000000000000000000000000000000000000082169050919050565b6000819050919050565b600073ffffffffffffffffffffffffffffffffffffffff82169050919050565b60005b838110156118e35780820151818401526020810190506118c8565b838111156118f2576000848401525b50505050565b6000600282049050600182168061191057607f821691505b6020821081141561192457611923611962565b5b50919050565b600061193582611950565b9050919050565b6000819050919050565b6000819050919050565b600061195b826119a2565b9050919050565b7f4e487b7100000000000000000000000000000000000000000000000000000000600052602260045260246000fd5b6000601f19601f8301169050919050565b60008160601b9050919050565b7fff00000000000000000000000000000000000000000000000000000000000000600082015250565b7f4661696c656420746f20696e697469616c697a6520746865206e6577206d657460008201527f616d6f727068696320636f6e74726163742e0000000000000000000000000000602082015250565b7f496e76616c69642073616c74202d206669727374203230206279746573206f6660008201527f207468652073616c74206d757374206d617463682063616c6c696e672061646460208201527f726573732e000000000000000000000000000000000000000000000000000000604082015250565b7f436f756c64206e6f74206465706c6f7920696d706c656d656e746174696f6e2e600082015250565b7f4661696c656420746f206465706c6f79206d6574616d6f727068696320636f6e60008201527f7472616374207573696e6720676976656e2073616c7420616e6420696e69742060208201527f636f64652e000000000000000000000000000000000000000000000000000000604082015250565b7f4661696c656420746f206465706c6f7920746865206e6577206d6574616d6f7260008201527f7068696320636f6e74726163742e000000000000000000000000000000000000602082015250565b611b928161185d565b8114611b9d57600080fd5b50565b611ba98161189b565b8114611bb457600080fd5b5056fea264697066735822122017ade8c5c79e82d3277c734910fff2e89fef290ff8d438abc44ff99322c98ea364736f6c63430008020033",
    "linkReferences": {}
  },
  "methodIdentifiers": {
    "deployMetamorphicContract(bytes32,bytes,bytes)": "6f8bda37",
    "deployMetamorphicContractFromExistingImplementation(bytes32,address,bytes)": "82cd5833",
    "deployMetamorphicContractWithConstructor(bytes32,bytes)": "2c51145c",
    "findMetamorphicContractAddress(bytes32)": "b5714de6",
    "findMetamorphicContractAddressWithConstructor(bytes32)": "687c42fd",
    "findTransientContractAddress(bytes32)": "a32cfb69",
    "getImplementation()": "aaf10f42",
    "getImplementationContractAddress(address)": "b7d2b0b4",
    "getInitializationCode()": "57b9f523",
    "getMetamorphicContractInitializationCode()": "c762ef58",
    "getMetamorphicContractInitializationCodeHash()": "641b2afa",
    "getMetamorphicContractInstanceInitializationCode(address)": "59449e55",
    "getTransientContractInitializationCode()": "0563ef93",
    "getTransientContractInitializationCodeHash()": "010fcf85"
  },
  "id": 0
}