{
  "abi": [
    {
      "inputs": [
        {
          "internalType": "bytes",
          "name": "transientContractInitializationCode",
          "type": "bytes"
        }
      ],
      "stateMutability": "nonpayable",
      "type": "constructor"
    },
    {
      "anonymous": false,
      "inputs": [
        {
          "indexed": false,
          "internalType": "address",
          "name": "metamorphicContract",
          "type": "address"
        },
        {
          "indexed": false,
          "internalType": "address",
          "name": "newImplementation",
          "type": "address"
        }
      ],
      "name": "Metamorphosed",
      "type": "event"
    },
    {
      "anonymous": false,
      "inputs": [
        {
          "indexed": false,
          "internalType": "address",
          "name": "metamorphicContract",
          "type": "address"
        },
        {
          "indexed": false,
          "internalType": "address",
          "name": "transientContract",
          "type": "address"
        }
      ],
      "name": "MetamorphosedWithConstructor",
      "type": "event"
    },
    {
      "inputs": [
        {
          "internalType": "bytes32",
          "name": "salt",
          "type": "bytes32"
        },
        {
          "internalType": "bytes",
          "name": "implementationContractInitializationCode",
          "type": "bytes"
        },
        {
          "internalType": "bytes",
          "name": "metamorphicContractInitializationCalldata",
          "type": "bytes"
        }
      ],
      "name": "deployMetamorphicContract",
      "outputs": [
        {
          "internalType": "address",
          "name": "metamorphicContractAddress",
          "type": "address"
        }
      ],
      "stateMutability": "payable",
      "type": "function"
    },
    {
      "inputs": [
        {
          "internalType": "bytes32",
          "name": "salt",
          "type": "bytes32"
        },
        {
          "internalType": "address",
          "name": "implementationContract",
          "type": "address"
        },
        {
          "internalType": "bytes",
          "name": "metamorphicContractInitializationCalldata",
          "type": "bytes"
        }
      ],
      "name": "deployMetamorphicContractFromExistingImplementation",
      "outputs": [
        {
          "internalType": "address",
          "name": "metamorphicContractAddress",
          "type": "address"
        }
      ],
      "stateMutability": "payable",
      "type": "function"
    },
    {
      "inputs": [
        {
          "internalType": "bytes32",
          "name": "salt",
          "type": "bytes32"
        },
        {
          "internalType": "bytes",
          "name": "initializationCode",
          "type": "bytes"
        }
      ],
      "name": "deployMetamorphicContractWithConstructor",
      "outputs": [
        {
          "internalType": "address",
          "name": "metamorphicContractAddress",
          "type": "address"
        }
      ],
      "stateMutability": "payable",
      "type": "function"
    },
    {
      "inputs": [
        {
          "internalType": "bytes32",
          "name": "salt",
          "type": "bytes32"
        }
      ],
      "name": "findMetamorphicContractAddress",
      "outputs": [
        {
          "internalType": "address",
          "name": "metamorphicContractAddress",
          "type": "address"
        }
      ],
      "stateMutability": "view",
      "type": "function"
    },
    {
      "inputs": [
        {
          "internalType": "bytes32",
          "name": "salt",
          "type": "bytes32"
        }
      ],
      "name": "findMetamorphicContractAddressWithConstructor",
      "outputs": [
        {
          "internalType": "address",
          "name": "metamorphicContractAddress",
          "type": "address"
        }
      ],
      "stateMutability": "view",
      "type": "function"
    },
    {
      "inputs": [
        {
          "internalType": "bytes32",
          "name": "salt",
          "type": "bytes32"
        }
      ],
      "name": "findTransientContractAddress",
      "outputs": [
        {
          "internalType": "address",
          "name": "transientContractAddress",
          "type": "address"
        }
      ],
      "stateMutability": "view",
      "type": "function"
    },
    {
      "inputs": [
        {
          "internalType": "bytes",
          "name": "bytecode",
          "type": "bytes"
        },
        {
          "internalType": "bytes32",
          "name": "_salt",
          "type": "bytes32"
        }
      ],
      "name": "getAddress",
      "outputs": [
        {
          "internalType": "address",
          "name": "",
          "type": "address"
        }
      ],
      "stateMutability": "view",
      "type": "function"
    },
    {
      "inputs": [],
      "name": "getImplementation",
      "outputs": [
        {
          "internalType": "address",
          "name": "implementation",
          "type": "address"
        }
      ],
      "stateMutability": "view",
      "type": "function"
    },
    {
      "inputs": [
        {
          "internalType": "address",
          "name": "metamorphicContractAddress",
          "type": "address"
        }
      ],
      "name": "getImplementationContractAddress",
      "outputs": [
        {
          "internalType": "address",
          "name": "implementationContractAddress",
          "type": "address"
        }
      ],
      "stateMutability": "view",
      "type": "function"
    },
    {
      "inputs": [],
      "name": "getInitializationCode",
      "outputs": [
        {
          "internalType": "bytes",
          "name": "initializationCode",
          "type": "bytes"
        }
      ],
      "stateMutability": "view",
      "type": "function"
    },
    {
      "inputs": [],
      "name": "getMetamorphicContractInitializationCode",
      "outputs": [
        {
          "internalType": "bytes",
          "name": "metamorphicContractInitializationCode",
          "type": "bytes"
        }
      ],
      "stateMutability": "view",
      "type": "function"
    },
    {
      "inputs": [],
      "name": "getMetamorphicContractInitializationCodeHash",
      "outputs": [
        {
          "internalType": "bytes32",
          "name": "metamorphicContractInitializationCodeHash",
          "type": "bytes32"
        }
      ],
      "stateMutability": "view",
      "type": "function"
    },
    {
      "inputs": [
        {
          "internalType": "address",
          "name": "transientContractAddress",
          "type": "address"
        }
      ],
      "name": "getMetamorphicContractInstanceInitializationCode",
      "outputs": [
        {
          "internalType": "bytes",
          "name": "initializationCode",
          "type": "bytes"
        }
      ],
      "stateMutability": "view",
      "type": "function"
    },
    {
      "inputs": [],
      "name": "getTransientBytecode",
      "outputs": [
        {
          "internalType": "bytes",
          "name": "",
          "type": "bytes"
        }
      ],
      "stateMutability": "pure",
      "type": "function"
    },
    {
      "inputs": [],
      "name": "getTransientContractInitializationCode",
      "outputs": [
        {
          "internalType": "bytes",
          "name": "transientContractInitializationCode",
          "type": "bytes"
        }
      ],
      "stateMutability": "view",
      "type": "function"
    },
    {
      "inputs": [],
      "name": "getTransientContractInitializationCodeHash",
      "outputs": [
        {
          "internalType": "bytes32",
          "name": "transientContractInitializationCodeHash",
          "type": "bytes32"
        }
      ],
      "stateMutability": "view",
      "type": "function"
    }
  ],
  "bytecode": {
    "object": "0x60806040523480156200001157600080fd5b50604051620027f1380380620027f18339818101604052810190620000379190620002b8565b6040518060400160405280601d81526020017f5860208158601c335a63aaf10f428752fa158151803b80938091923cf3000000815250600090805190602001906200008492919062000105565b50600060405160200162000099919062000388565b604051602081830303815290604052805190602001206001819055508060029080519060200190620000cd92919062000196565b506002604051602001620000e2919062000388565b604051602081830303815290604052805190602001206003819055505062000531565b828054620001139062000456565b90600052602060002090601f01602090048101928262000137576000855562000183565b82601f106200015257805160ff191683800117855562000183565b8280016001018555821562000183579182015b828111156200018257825182559160200191906001019062000165565b5b50905062000192919062000227565b5090565b828054620001a49062000456565b90600052602060002090601f016020900481019282620001c8576000855562000214565b82601f10620001e357805160ff191683800117855562000214565b8280016001018555821562000214579182015b8281111562000213578251825591602001919060010190620001f6565b5b50905062000223919062000227565b5090565b5b808211156200024257600081600090555060010162000228565b5090565b60006200025d6200025784620003ca565b620003a1565b9050828152602081018484840111156200027657600080fd5b6200028384828562000420565b509392505050565b600082601f8301126200029d57600080fd5b8151620002af84826020860162000246565b91505092915050565b600060208284031215620002cb57600080fd5b600082015167ffffffffffffffff811115620002e657600080fd5b620002f4848285016200028b565b91505092915050565b600081546200030c8162000456565b62000318818662000415565b9450600182166000811462000336576001811462000348576200037f565b60ff198316865281860193506200037f565b620003538562000400565b60005b83811015620003775781548189015260018201915060208101905062000356565b838801955050505b50505092915050565b6000620003968284620002fd565b915081905092915050565b6000620003ad620003c0565b9050620003bb82826200048c565b919050565b6000604051905090565b600067ffffffffffffffff821115620003e857620003e7620004f1565b5b620003f38262000520565b9050602081019050919050565b60008190508160005260206000209050919050565b600081905092915050565b60005b838110156200044057808201518184015260208101905062000423565b8381111562000450576000848401525b50505050565b600060028204905060018216806200046f57607f821691505b60208210811415620004865762000485620004c2565b5b50919050565b620004978262000520565b810181811067ffffffffffffffff82111715620004b957620004b8620004f1565b5b80604052505050565b7f4e487b7100000000000000000000000000000000000000000000000000000000600052602260045260246000fd5b7f4e487b7100000000000000000000000000000000000000000000000000000000600052604160045260246000fd5b6000601f19601f8301169050919050565b6122b080620005416000396000f3fe6080604052600436106200010a5760003560e01c8063687c42fd1162000097578063aaf10f421162000061578063aaf10f4214620003b1578063b5714de614620003e1578063b7d2b0b41462000425578063c762ef581462000469576200010a565b8063687c42fd14620002bd5780636f8bda37146200030157806382cd58331462000337578063a32cfb69146200036d576200010a565b806352d5632311620000d957806352d5632314620001e957806357b9f523146200021957806359449e551462000249578063641b2afa146200028d576200010a565b8063010fcf85146200010f5780630563ef93146200013f5780632c51145c146200016f57806348aac39214620001a5575b600080fd5b3480156200011c57600080fd5b506200012762000499565b60405162000136919062001a7a565b60405180910390f35b3480156200014c57600080fd5b5062000157620004a3565b60405162000166919062001a97565b60405180910390f35b6200018d6004803603810190620001879190620015fc565b6200053d565b6040516200019c919062001a30565b60405180910390f35b348015620001b257600080fd5b50620001d16004803603810190620001cb9190620016ec565b6200071d565b604051620001e0919062001a30565b60405180910390f35b348015620001f657600080fd5b506200020162000769565b60405162000210919062001a97565b60405180910390f35b3480156200022657600080fd5b50620002316200079c565b60405162000240919062001a97565b60405180910390f35b3480156200025657600080fd5b506200027560048036038101906200026f919062001530565b62000873565b60405162000284919062001a97565b60405180910390f35b3480156200029a57600080fd5b50620002a56200094c565b604051620002b4919062001a7a565b60405180910390f35b348015620002ca57600080fd5b50620002e96004803603810190620002e391906200155c565b62000956565b604051620002f8919062001a30565b60405180910390f35b6200031f60048036038101906200031991906200165a565b62000974565b6040516200032e919062001a30565b60405180910390f35b6200035560048036038101906200034f919062001588565b62000dbd565b60405162000364919062001a30565b60405180910390f35b3480156200037a57600080fd5b506200039960048036038101906200039391906200155c565b62001136565b604051620003a8919062001a30565b60405180910390f35b348015620003be57600080fd5b50620003c96200114a565b604051620003d8919062001a30565b60405180910390f35b348015620003ee57600080fd5b506200040d60048036038101906200040791906200155c565b620011b1565b6040516200041c919062001a30565b60405180910390f35b3480156200043257600080fd5b506200045160048036038101906200044b919062001530565b620011c5565b60405162000460919062001a30565b60405180910390f35b3480156200047657600080fd5b50620004816200122e565b60405162000490919062001a97565b60405180910390f35b6000600354905090565b606060028054620004b49062001cb6565b80601f0160208091040260200160405190810160405280929190818152602001828054620004e29062001cb6565b8015620005335780601f10620005075761010080835404028352916020019162000533565b820191906000526020600020905b8154815290600101906020018083116200051557829003601f168201915b5050505050905090565b6000833373ffffffffffffffffffffffffffffffffffffffff168160601c73ffffffffffffffffffffffffffffffffffffffff1614620005b4576040517f08c379a0000000000000000000000000000000000000000000000000000000008152600401620005ab9062001add565b60405180910390fd5b6000620005c062000769565b9050600080620005d183896200071d565b90508686600560008473ffffffffffffffffffffffffffffffffffffffff1673ffffffffffffffffffffffffffffffffffffffff16815260200190815260200160002091906200062392919062001385565b508734604051620006349062001416565b82906040518091039083f5905090508015801562000656573d6000803e3d6000fd5b5091508073ffffffffffffffffffffffffffffffffffffffff168273ffffffffffffffffffffffffffffffffffffffff1614620006ca576040517f08c379a0000000000000000000000000000000000000000000000000000000008152600401620006c19062001b21565b60405180910390fd5b620006d581620012c8565b94507f5a450ff2319c286ed6a7b238e478f4c3c97d76f47704d5d9f4a568eb842afbd385826040516200070a92919062001a4d565b60405180910390a1505050509392505050565b60008060ff60f81b308486805190602001206040516020016200074494939291906200191b565b6040516020818303038152906040528051906020012090508060001c91505092915050565b60606000604051806020016200077f9062001416565b6020820181038252601f19601f8201166040525090508091505090565b6060600560003373ffffffffffffffffffffffffffffffffffffffff1673ffffffffffffffffffffffffffffffffffffffff1681526020019081526020016000208054620007ea9062001cb6565b80601f0160208091040260200160405190810160405280929190818152602001828054620008189062001cb6565b8015620008695780601f106200083d5761010080835404028352916020019162000869565b820191906000526020600020905b8154815290600101906020018083116200084b57829003601f168201915b5050505050905090565b6060600560008373ffffffffffffffffffffffffffffffffffffffff1673ffffffffffffffffffffffffffffffffffffffff1681526020019081526020016000208054620008c19062001cb6565b80601f0160208091040260200160405190810160405280929190818152602001828054620008ef9062001cb6565b8015620009405780601f10620009145761010080835404028352916020019162000940565b820191906000526020600020905b8154815290600101906020018083116200092257829003601f168201915b50505050509050919050565b6000600154905090565b60006200096d62000967836200130f565b620012c8565b9050919050565b6000853373ffffffffffffffffffffffffffffffffffffffff168160601c73ffffffffffffffffffffffffffffffffffffffff1614620009eb576040517f08c379a0000000000000000000000000000000000000000000000000000000008152600401620009e29062001add565b60405180910390fd5b600086868080601f016020809104026020016040519081016040528093929190818152602001838380828437600081840152601f19601f820116905080830192505050505050509050600085858080601f016020809104026020016040519081016040528093929190818152602001838380828437600081840152601f19601f820116905080830192505050505050509050600080805462000a8d9062001cb6565b80601f016020809104026020016040519081016040528092919081815260200182805462000abb9062001cb6565b801562000b0c5780601f1062000ae05761010080835404028352916020019162000b0c565b820191906000526020600020905b81548152906001019060200180831162000aee57829003601f168201915b50505050509050600062000b208b6200134a565b9550600084602001855180826000f092505050600073ffffffffffffffffffffffffffffffffffffffff168173ffffffffffffffffffffffffffffffffffffffff16141562000ba6576040517f08c379a000000000000000000000000000000000000000000000000000000000815260040162000b9d9062001aff565b60405180910390fd5b80600460008973ffffffffffffffffffffffffffffffffffffffff1673ffffffffffffffffffffffffffffffffffffffff16815260200190815260200160002060006101000a81548173ffffffffffffffffffffffffffffffffffffffff021916908373ffffffffffffffffffffffffffffffffffffffff1602179055508260200183518d81836000f5935050508673ffffffffffffffffffffffffffffffffffffffff168273ffffffffffffffffffffffffffffffffffffffff161462000ca5576040517f08c379a000000000000000000000000000000000000000000000000000000000815260040162000c9c9062001b43565b60405180910390fd5b60008451118062000cb65750600034115b1562000d735760008273ffffffffffffffffffffffffffffffffffffffff16348660405162000ce69190620019c7565b60006040518083038185875af1925050503d806000811462000d25576040519150601f19603f3d011682016040523d82523d6000602084013e62000d2a565b606091505b505090508062000d71576040517f08c379a000000000000000000000000000000000000000000000000000000000815260040162000d689062001abb565b60405180910390fd5b505b7f2d2abf98ee3d10557b7f9aca6b41a1c0ee9095804e5dc6caa3c836995ceaeffb828260405162000da692919062001a4d565b60405180910390a150505050505095945050505050565b6000843373ffffffffffffffffffffffffffffffffffffffff168160601c73ffffffffffffffffffffffffffffffffffffffff161462000e34576040517f08c379a000000000000000000000000000000000000000000000000000000000815260040162000e2b9062001add565b60405180910390fd5b600084848080601f016020809104026020016040519081016040528093929190818152602001838380828437600081840152601f19601f820116905080830192505050505050509050600080805462000e8d9062001cb6565b80601f016020809104026020016040519081016040528092919081815260200182805462000ebb9062001cb6565b801562000f0c5780601f1062000ee05761010080835404028352916020019162000f0c565b820191906000526020600020905b81548152906001019060200180831162000eee57829003601f168201915b50505050509050600062000f20896200134a565b945087600460008773ffffffffffffffffffffffffffffffffffffffff1673ffffffffffffffffffffffffffffffffffffffff16815260200190815260200160002060006101000a81548173ffffffffffffffffffffffffffffffffffffffff021916908373ffffffffffffffffffffffffffffffffffffffff1602179055508160200182518a81836000f5925050508473ffffffffffffffffffffffffffffffffffffffff168173ffffffffffffffffffffffffffffffffffffffff161462001021576040517f08c379a0000000000000000000000000000000000000000000000000000000008152600401620010189062001b43565b60405180910390fd5b600083511180620010325750600034115b15620010ef5760008573ffffffffffffffffffffffffffffffffffffffff163485604051620010629190620019c7565b60006040518083038185875af1925050503d8060008114620010a1576040519150601f19603f3d011682016040523d82523d6000602084013e620010a6565b606091505b5050905080620010ed576040517f08c379a0000000000000000000000000000000000000000000000000000000008152600401620010e49062001abb565b60405180910390fd5b505b7f2d2abf98ee3d10557b7f9aca6b41a1c0ee9095804e5dc6caa3c836995ceaeffb81896040516200112292919062001a4d565b60405180910390a150505050949350505050565b600062001143826200130f565b9050919050565b6000600460003373ffffffffffffffffffffffffffffffffffffffff1673ffffffffffffffffffffffffffffffffffffffff16815260200190815260200160002060009054906101000a900473ffffffffffffffffffffffffffffffffffffffff16905090565b6000620011be826200134a565b9050919050565b6000600460008373ffffffffffffffffffffffffffffffffffffffff1673ffffffffffffffffffffffffffffffffffffffff16815260200190815260200160002060009054906101000a900473ffffffffffffffffffffffffffffffffffffffff169050919050565b6060600080546200123f9062001cb6565b80601f01602080910402602001604051908101604052809291908181526020018280546200126d9062001cb6565b8015620012be5780601f106200129257610100808354040283529160200191620012be565b820191906000526020600020905b815481529060010190602001808311620012a057829003601f168201915b5050505050905090565b600060d660f81b609460f81b83600160f81b604051602001620012ef949392919062001971565b6040516020818303038152906040528051906020012060001c9050919050565b600030826003546040516020016200132a93929190620019e0565b6040516020818303038152906040528051906020012060001c9050919050565b600030826001546040516020016200136593929190620019e0565b6040516020818303038152906040528051906020012060001c9050919050565b828054620013939062001cb6565b90600052602060002090601f016020900481019282620013b7576000855562001403565b82601f10620013d257803560ff191683800117855562001403565b8280016001018555821562001403579182015b8281111562001402578235825591602001919060010190620013e5565b5b50905062001412919062001424565b5090565b6102928062001fe983390190565b5b808211156200143f57600081600090555060010162001425565b5090565b60006200145a620014548462001b8e565b62001b65565b9050828152602081018484840111156200147357600080fd5b6200148084828562001c71565b509392505050565b600081359050620014998162001fb4565b92915050565b600081359050620014b08162001fce565b92915050565b60008083601f840112620014c957600080fd5b8235905067ffffffffffffffff811115620014e357600080fd5b602083019150836001820283011115620014fc57600080fd5b9250929050565b600082601f8301126200151557600080fd5b81356200152784826020860162001443565b91505092915050565b6000602082840312156200154357600080fd5b6000620015538482850162001488565b91505092915050565b6000602082840312156200156f57600080fd5b60006200157f848285016200149f565b91505092915050565b600080600080606085870312156200159f57600080fd5b6000620015af878288016200149f565b9450506020620015c28782880162001488565b935050604085013567ffffffffffffffff811115620015e057600080fd5b620015ee87828801620014b6565b925092505092959194509250565b6000806000604084860312156200161257600080fd5b600062001622868287016200149f565b935050602084013567ffffffffffffffff8111156200164057600080fd5b6200164e86828701620014b6565b92509250509250925092565b6000806000806000606086880312156200167357600080fd5b600062001683888289016200149f565b955050602086013567ffffffffffffffff811115620016a157600080fd5b620016af88828901620014b6565b9450945050604086013567ffffffffffffffff811115620016cf57600080fd5b620016dd88828901620014b6565b92509250509295509295909350565b600080604083850312156200170057600080fd5b600083013567ffffffffffffffff8111156200171b57600080fd5b620017298582860162001503565b92505060206200173c858286016200149f565b9150509250929050565b620017518162001c07565b82525050565b6200176c620017668262001c07565b62001d22565b82525050565b62001787620017818262001c1b565b62001d36565b82525050565b620017988162001c47565b82525050565b620017b3620017ad8262001c47565b62001d40565b82525050565b6000620017c68262001bc4565b620017d2818562001bcf565b9350620017e481856020860162001c80565b620017ef8162001dbc565b840191505092915050565b6000620018078262001bc4565b62001813818562001be0565b93506200182581856020860162001c80565b80840191505092915050565b60006200184060018362001bfc565b91506200184d8262001dda565b600182019050919050565b60006200186760328362001beb565b9150620018748262001e03565b604082019050919050565b60006200188e60458362001beb565b91506200189b8262001e52565b606082019050919050565b6000620018b560208362001beb565b9150620018c28262001ec7565b602082019050919050565b6000620018dc60458362001beb565b9150620018e98262001ef0565b606082019050919050565b600062001903602e8362001beb565b9150620019108262001f65565b604082019050919050565b600062001929828762001772565b6001820191506200193b828662001757565b6014820191506200194d82856200179e565b6020820191506200195f82846200179e565b60208201915081905095945050505050565b60006200197f828762001772565b60018201915062001991828662001772565b600182019150620019a3828562001757565b601482019150620019b5828462001772565b60018201915081905095945050505050565b6000620019d58284620017fa565b915081905092915050565b6000620019ed8262001831565b9150620019fb828662001757565b60148201915062001a0d82856200179e565b60208201915062001a1f82846200179e565b602082019150819050949350505050565b600060208201905062001a47600083018462001746565b92915050565b600060408201905062001a64600083018562001746565b62001a73602083018462001746565b9392505050565b600060208201905062001a9160008301846200178d565b92915050565b6000602082019050818103600083015262001ab38184620017b9565b905092915050565b6000602082019050818103600083015262001ad68162001858565b9050919050565b6000602082019050818103600083015262001af8816200187f565b9050919050565b6000602082019050818103600083015262001b1a81620018a6565b9050919050565b6000602082019050818103600083015262001b3c81620018cd565b9050919050565b6000602082019050818103600083015262001b5e81620018f4565b9050919050565b600062001b7162001b84565b905062001b7f828262001cec565b919050565b6000604051905090565b600067ffffffffffffffff82111562001bac5762001bab62001d8d565b5b62001bb78262001dbc565b9050602081019050919050565b600081519050919050565b600082825260208201905092915050565b600081905092915050565b600082825260208201905092915050565b600081905092915050565b600062001c148262001c51565b9050919050565b60007fff0000000000000000000000000000000000000000000000000000000000000082169050919050565b6000819050919050565b600073ffffffffffffffffffffffffffffffffffffffff82169050919050565b82818337600083830152505050565b60005b8381101562001ca057808201518184015260208101905062001c83565b8381111562001cb0576000848401525b50505050565b6000600282049050600182168062001ccf57607f821691505b6020821081141562001ce65762001ce562001d5e565b5b50919050565b62001cf78262001dbc565b810181811067ffffffffffffffff8211171562001d195762001d1862001d8d565b5b80604052505050565b600062001d2f8262001d4a565b9050919050565b6000819050919050565b6000819050919050565b600062001d578262001dcd565b9050919050565b7f4e487b7100000000000000000000000000000000000000000000000000000000600052602260045260246000fd5b7f4e487b7100000000000000000000000000000000000000000000000000000000600052604160045260246000fd5b6000601f19601f8301169050919050565b60008160601b9050919050565b7fff00000000000000000000000000000000000000000000000000000000000000600082015250565b7f4661696c656420746f20696e697469616c697a6520746865206e6577206d657460008201527f616d6f727068696320636f6e74726163742e0000000000000000000000000000602082015250565b7f496e76616c69642073616c74202d206669727374203230206279746573206f6660008201527f207468652073616c74206d757374206d617463682063616c6c696e672061646460208201527f726573732e000000000000000000000000000000000000000000000000000000604082015250565b7f436f756c64206e6f74206465706c6f7920696d706c656d656e746174696f6e2e600082015250565b7f4661696c656420746f206465706c6f79206d6574616d6f727068696320636f6e60008201527f7472616374207573696e6720676976656e2073616c7420616e6420696e69742060208201527f636f64652e000000000000000000000000000000000000000000000000000000604082015250565b7f4661696c656420746f206465706c6f7920746865206e6577206d6574616d6f7260008201527f7068696320636f6e74726163742e000000000000000000000000000000000000602082015250565b62001fbf8162001c07565b811462001fcb57600080fd5b50565b62001fd98162001c47565b811462001fe557600080fd5b5056fe608060405260003373ffffffffffffffffffffffffffffffffffffffff166357b9f5236040518163ffffffff1660e01b815260040160006040518083038186803b15801561004c57600080fd5b505afa158015610060573d6000803e3d6000fd5b505050506040513d6000823e3d601f19601f820116820180604052508101906100899190610156565b90506000816020018251808234f092505050600073ffffffffffffffffffffffffffffffffffffffff168173ffffffffffffffffffffffffffffffffffffffff1614156100d557600080fd5b8073ffffffffffffffffffffffffffffffffffffffff16ff5b60006101016100fc846101bc565b610197565b90508281526020810184848401111561011957600080fd5b6101248482856101ed565b509392505050565b600082601f83011261013d57600080fd5b815161014d8482602086016100ee565b91505092915050565b60006020828403121561016857600080fd5b600082015167ffffffffffffffff81111561018257600080fd5b61018e8482850161012c565b91505092915050565b60006101a16101b2565b90506101ad8282610220565b919050565b6000604051905090565b600067ffffffffffffffff8211156101d7576101d6610251565b5b6101e082610280565b9050602081019050919050565b60005b8381101561020b5780820151818401526020810190506101f0565b8381111561021a576000848401525b50505050565b61022982610280565b810181811067ffffffffffffffff8211171561024857610247610251565b5b80604052505050565b7f4e487b7100000000000000000000000000000000000000000000000000000000600052604160045260246000fd5b6000601f19601f830116905091905056fea2646970667358221220b568c866de3f5ea1b7191b932c53a783f37f47677863750a13e1d80b3e31892264736f6c63430008020033",
    "linkReferences": {}
  },
  "methodIdentifiers": {
    "deployMetamorphicContract(bytes32,bytes,bytes)": "6f8bda37",
    "deployMetamorphicContractFromExistingImplementation(bytes32,address,bytes)": "82cd5833",
    "deployMetamorphicContractWithConstructor(bytes32,bytes)": "2c51145c",
    "findMetamorphicContractAddress(bytes32)": "b5714de6",
    "findMetamorphicContractAddressWithConstructor(bytes32)": "687c42fd",
    "findTransientContractAddress(bytes32)": "a32cfb69",
    "getAddress(bytes,bytes32)": "48aac392",
    "getImplementation()": "aaf10f42",
    "getImplementationContractAddress(address)": "b7d2b0b4",
    "getInitializationCode()": "57b9f523",
    "getMetamorphicContractInitializationCode()": "c762ef58",
    "getMetamorphicContractInitializationCodeHash()": "641b2afa",
    "getMetamorphicContractInstanceInitializationCode(address)": "59449e55",
    "getTransientBytecode()": "52d56323",
    "getTransientContractInitializationCode()": "0563ef93",
    "getTransientContractInitializationCodeHash()": "010fcf85"
  },
  "id": 0
}