{
  "abi": [
    {
      "inputs": [],
      "stateMutability": "payable",
      "type": "constructor"
    },
    {
      "inputs": [
        {
          "internalType": "uint256",
          "name": "",
          "type": "uint256"
        }
      ],
      "name": "accounts",
      "outputs": [
        {
          "internalType": "contract Account",
          "name": "",
          "type": "address"
        }
      ],
      "stateMutability": "view",
      "type": "function"
    },
    {
      "inputs": [],
      "name": "openAccount",
      "outputs": [
        {
          "internalType": "address",
          "name": "",
          "type": "address"
        }
      ],
      "stateMutability": "payable",
      "type": "function"
    },
    {
      "inputs": [],
      "name": "owner",
      "outputs": [
        {
          "internalType": "address",
          "name": "",
          "type": "address"
        }
      ],
      "stateMutability": "view",
      "type": "function"
    }
  ],
  "bytecode": {
    "object": "0x6080604052336000806101000a81548173ffffffffffffffffffffffffffffffffffffffff021916908373ffffffffffffffffffffffffffffffffffffffff1602179055506105a6806100536000396000f3fe6080604052600436106100345760003560e01c8063292eb75d146100395780638da5cb5b14610057578063f2a40db814610082575b600080fd5b6100416100bf565b60405161004e919061022e565b60405180910390f35b34801561006357600080fd5b5061006c610162565b604051610079919061022e565b60405180910390f35b34801561008e57600080fd5b506100a960048036038101906100a491906101e7565b610186565b6040516100b69190610249565b60405180910390f35b600080336040516100cf906101c5565b6100d9919061022e565b604051809103906000f0801580156100f5573d6000803e3d6000fd5b5090506001819080600181540180825580915050600190039060005260206000200160009091909190916101000a81548173ffffffffffffffffffffffffffffffffffffffff021916908373ffffffffffffffffffffffffffffffffffffffff1602179055508091505090565b60008054906101000a900473ffffffffffffffffffffffffffffffffffffffff1681565b6001818154811061019657600080fd5b906000526020600020016000915054906101000a900473ffffffffffffffffffffffffffffffffffffffff1681565b610295806102dc83390190565b6000813590506101e1816102c4565b92915050565b6000602082840312156101f957600080fd5b6000610207848285016101d2565b91505092915050565b61021981610264565b82525050565b610228816102a0565b82525050565b60006020820190506102436000830184610210565b92915050565b600060208201905061025e600083018461021f565b92915050565b600061026f82610276565b9050919050565b600073ffffffffffffffffffffffffffffffffffffffff82169050919050565b6000819050919050565b60006102ab826102b2565b9050919050565b60006102bd82610276565b9050919050565b6102cd81610296565b81146102d857600080fd5b5056fe6080604052604051610295380380610295833981810160405281019061002591906100c1565b33600160006101000a81548173ffffffffffffffffffffffffffffffffffffffff021916908373ffffffffffffffffffffffffffffffffffffffff160217905550806000806101000a81548173ffffffffffffffffffffffffffffffffffffffff021916908373ffffffffffffffffffffffffffffffffffffffff16021790555050610133565b6000815190506100bb8161011c565b92915050565b6000602082840312156100d357600080fd5b60006100e1848285016100ac565b91505092915050565b60006100f5826100fc565b9050919050565b600073ffffffffffffffffffffffffffffffffffffffff82169050919050565b610125816100ea565b811461013057600080fd5b50565b610153806101426000396000f3fe608060405234801561001057600080fd5b50600436106100365760003560e01c806376cdb03b1461003b5780638da5cb5b14610059575b600080fd5b610043610077565b60405161005091906100d0565b60405180910390f35b61006161009d565b60405161006e91906100d0565b60405180910390f35b600160009054906101000a900473ffffffffffffffffffffffffffffffffffffffff1681565b60008054906101000a900473ffffffffffffffffffffffffffffffffffffffff1681565b6100ca816100eb565b82525050565b60006020820190506100e560008301846100c1565b92915050565b60006100f6826100fd565b9050919050565b600073ffffffffffffffffffffffffffffffffffffffff8216905091905056fea2646970667358221220fe0ec95b7c888cd6a12d4d7703dcafc2a8c3e297b6a1f6d91664e4f31418d68764736f6c63430008020033a2646970667358221220ed0ab3924e01d6f4a0c339cd4703f409c946865525b6cee9c36c8ae8470b9cf264736f6c63430008020033",
    "linkReferences": {}
  },
  "methodIdentifiers": {
    "accounts(uint256)": "f2a40db8",
    "openAccount()": "292eb75d",
    "owner()": "8da5cb5b"
  },
  "id": 0
}