{
  "abi": [
    {
      "inputs": [],
      "stateMutability": "payable",
      "type": "constructor"
    },
    {
      "inputs": [],
      "name": "description",
      "outputs": [
        {
          "internalType": "string",
          "name": "",
          "type": "string"
        }
      ],
      "stateMutability": "pure",
      "type": "function"
    }
  ],
  "bytecode": {
    "object": "0x608060405261017c806100136000396000f3fe608060405234801561001057600080fd5b506004361061002b5760003560e01c80637284e41614610030575b600080fd5b61003861004e565b60405161004591906100c4565b60405180910390f35b60606040518060400160405280600981526020017f427574746572666c790000000000000000000000000000000000000000000000815250905090565b6000610096826100e6565b6100a081856100f1565b93506100b0818560208601610102565b6100b981610135565b840191505092915050565b600060208201905081810360008301526100de818461008b565b905092915050565b600081519050919050565b600082825260208201905092915050565b60005b83811015610120578082015181840152602081019050610105565b8381111561012f576000848401525b50505050565b6000601f19601f830116905091905056fea2646970667358221220abb97d216d3b68b991147e92aba558970393b8d4a8badd3cf664b5fb749f740464736f6c63430008020033",
    "linkReferences": {}
  },
  "methodIdentifiers": {
    "description()": "7284e416"
  },
  "id": 0
}