{
  "abi": [
    {
      "inputs": [],
      "stateMutability": "payable",
      "type": "constructor"
    },
    {
      "inputs": [],
      "name": "description",
      "outputs": [
        {
          "internalType": "string",
          "name": "",
          "type": "string"
        }
      ],
      "stateMutability": "pure",
      "type": "function"
    },
    {
      "inputs": [],
      "name": "destroy",
      "outputs": [],
      "stateMutability": "nonpayable",
      "type": "function"
    }
  ],
  "bytecode": {
    "object": "0x60806040526101aa806100136000396000f3fe608060405234801561001057600080fd5b50600436106100365760003560e01c80637284e4161461003b57806383197ef014610059575b600080fd5b610043610063565b60405161005091906100f2565b60405180910390f35b6100616100a0565b005b60606040518060400160405280600681526020017f436f636f6f6e0000000000000000000000000000000000000000000000000000815250905090565b3073ffffffffffffffffffffffffffffffffffffffff16ff5b60006100c482610114565b6100ce818561011f565b93506100de818560208601610130565b6100e781610163565b840191505092915050565b6000602082019050818103600083015261010c81846100b9565b905092915050565b600081519050919050565b600082825260208201905092915050565b60005b8381101561014e578082015181840152602081019050610133565b8381111561015d576000848401525b50505050565b6000601f19601f830116905091905056fea26469706673582212209099ee6536697cdd3698f1b58bb7a266b3d66155c2fd4ffc9d035563dc94ef2b64736f6c63430008020033",
    "linkReferences": {}
  },
  "methodIdentifiers": {
    "description()": "7284e416",
    "destroy()": "83197ef0"
  },
  "id": 0
}