{
  "abi": [
    {
      "inputs": [],
      "stateMutability": "payable",
      "type": "constructor"
    },
    {
      "inputs": [],
      "name": "description",
      "outputs": [
        {
          "internalType": "string",
          "name": "",
          "type": "string"
        }
      ],
      "stateMutability": "pure",
      "type": "function"
    },
    {
      "inputs": [],
      "name": "die",
      "outputs": [],
      "stateMutability": "nonpayable",
      "type": "function"
    }
  ],
  "bytecode": {
    "object": "0x60806040526101aa806100136000396000f3fe608060405234801561001057600080fd5b50600436106100365760003560e01c806335f469941461003b5780637284e41614610045575b600080fd5b610043610063565b005b61004d61007c565b60405161005a91906100f2565b60405180910390f35b3073ffffffffffffffffffffffffffffffffffffffff16ff5b60606040518060400160405280600681526020017f436f636f6f6e0000000000000000000000000000000000000000000000000000815250905090565b60006100c482610114565b6100ce818561011f565b93506100de818560208601610130565b6100e781610163565b840191505092915050565b6000602082019050818103600083015261010c81846100b9565b905092915050565b600081519050919050565b600082825260208201905092915050565b60005b8381101561014e578082015181840152602081019050610133565b8381111561015d576000848401525b50505050565b6000601f19601f830116905091905056fea264697066735822122076e7e9e1875fe772cc2ae89036e2ae6af68ae0a797d968c7ca204ea028ca3c7764736f6c63430008020033",
    "linkReferences": {}
  },
  "methodIdentifiers": {
    "description()": "7284e416",
    "die()": "35f46994"
  },
  "id": 0
}