{
  "abi": [
    {
      "inputs": [],
      "stateMutability": "payable",
      "type": "constructor"
    },
    {
      "inputs": [
        {
          "internalType": "address[]",
          "name": "_addresses",
          "type": "address[]"
        },
        {
          "internalType": "uint32",
          "name": "_curr_depth",
          "type": "uint32"
        }
      ],
      "name": "destroy",
      "outputs": [],
      "stateMutability": "nonpayable",
      "type": "function"
    }
  ],
  "bytecode": {
    "object": "0x6080604052610578806100136000396000f3fe608060405234801561001057600080fd5b506004361061002b5760003560e01c80639240b9db14610030575b600080fd5b61004a6004803603810190610045919061027c565b61004c565b005b828290508163ffffffff1610156101c657600083838363ffffffff1681811061009e577f4e487b7100000000000000000000000000000000000000000000000000000000600052603260045260246000fd5b90506020020160208101906100b39190610253565b73ffffffffffffffffffffffffffffffffffffffff1684846001856100d89190610436565b6040516024016100ea939291906103af565b6040516020818303038152906040527f9240b9db000000000000000000000000000000000000000000000000000000007bffffffffffffffffffffffffffffffffffffffffffffffffffffffff19166020820180517bffffffffffffffffffffffffffffffffffffffffffffffffffffffff83818316178352505050506040516101749190610398565b6000604051808303816000865af19150503d80600081146101b1576040519150601f19603f3d011682016040523d82523d6000602084013e6101b6565b606091505b50509050806101c457600080fd5b505b3373ffffffffffffffffffffffffffffffffffffffff16ff5b6000813590506101ee81610514565b92915050565b60008083601f84011261020657600080fd5b8235905067ffffffffffffffff81111561021f57600080fd5b60208301915083602082028301111561023757600080fd5b9250929050565b60008135905061024d8161052b565b92915050565b60006020828403121561026557600080fd5b6000610273848285016101df565b91505092915050565b60008060006040848603121561029157600080fd5b600084013567ffffffffffffffff8111156102ab57600080fd5b6102b7868287016101f4565b935093505060206102ca8682870161023e565b9150509250925092565b60006102e083836102ec565b60208301905092915050565b6102f581610470565b82525050565b60006103078385610403565b9350610312826103e1565b8060005b8581101561034b57610328828461041f565b61033288826102d4565b975061033d836103f6565b925050600181019050610316565b5085925050509392505050565b6000610363826103eb565b61036d8185610414565b935061037d8185602086016104b2565b80840191505092915050565b610392816104a2565b82525050565b60006103a48284610358565b915081905092915050565b600060408201905081810360008301526103ca8185876102fb565b90506103d96020830184610389565b949350505050565b6000819050919050565b600081519050919050565b6000602082019050919050565b600082825260208201905092915050565b600081905092915050565b600061042e60208401846101df565b905092915050565b6000610441826104a2565b915061044c836104a2565b92508263ffffffff03821115610465576104646104e5565b5b828201905092915050565b600061047b82610482565b9050919050565b600073ffffffffffffffffffffffffffffffffffffffff82169050919050565b600063ffffffff82169050919050565b60005b838110156104d05780820151818401526020810190506104b5565b838111156104df576000848401525b50505050565b7f4e487b7100000000000000000000000000000000000000000000000000000000600052601160045260246000fd5b61051d81610470565b811461052857600080fd5b50565b610534816104a2565b811461053f57600080fd5b5056fea2646970667358221220f859773acb9e224bf55ee965cafccdcdef2dd815b703d98e4702ea0b17c8307c64736f6c63430008020033",
    "linkReferences": {}
  },
  "methodIdentifiers": {
    "destroy(address[],uint32)": "9240b9db"
  },
  "id": 0
}